:020000040000FA
:2000000000500020ED000000E5000000C9000000E9000000E9000000E9000000000000001A
:20002000000000000000000000000000E9000000E900000000000000E9000000E90000001C
:20004000ED0E0000E900000021180000E9000000F5050000910B0000E9000000E900000032
:20006000E900000075180000E9000000E9000000E9000000E9000000E9000000E900000094
:20008000E9000000E9000000E9000000E9000000E9000000E9000000E9000000E900000018
:2000A000E9000000E9000000E9000000E9000000E9000000E9000000E9000000E9000000F8
:2000C000E9000000E12600004FF0E023D3F8282DB2F5806F04D0D3F8283D9B0500D4FEE7DB
:2000E000704700BFFEE700BFFEE700BF08B507F073F8104A10498A420DD2104801390346EA
:20010000891A21F003010431014453F8040B8B4242F8040BF9D10A480A494FF000028842C3
:20012000B8BF40F8042BFADB03F07AFDFFF7CCFF08BD00BF0000002024080020615101003E
:20014000280800203B300020F0B5002706463C463D4683B0304604F023FF0195019B9C42D8
:2001600006DD00BF019B01330193019BA342F8DB304604F043FF0195019BC4F5C8749C4274
:2001800006DD00BF019B01330193019BA342F8DB0137B7F5487F06D0B7F5C87FD4BF3C467C
:2001A000C7F54874D6E703B0F0BD00BF70B54FF08054194DD4F8D831284601215B68984746
:2001C0000122D4F8D83111461B682846984707F09DF900F0E3FE00F063FE00F0BBF804F0BA
:2001E0006BFF04F039FF0120FFF7AEFF01230B4ED4F8B01105F5B825F360094AAB600B699F
:200200001020D26A984707F085F900F071F9BDE870400020FFF798BF0040034000400940F6
:200220000020094008B541F2342002F07DF900F027FC04F01BFE074800F056FC0648082181
:2002400000F0F4FA04F038FDBDE808400220FFF77BBF00BF154E0000E016002008210023D4
:20026000F0B585B00DEB0100CDE9003300F0DEFABDF80E40254D64BAEE6A48F2A511A4B2C9
:200280000220B04721460320B0471A210120B04708226B6B0DEB02010B201D4F98470120DF
:2002A0006946AC6AA0473B68022B1ADC022001A9A04758B93B68022B04DC0020FFF744FFFF
:2002C00005B0F0BD0199134807F0E6FF3B68022BF3DD114807F0E0FF0020FFF735FF05B01D
:2002E000F0BD0E4A0E490F4807F0D6FF0E4807F0D3FF3B68022BD9DD0949084A094807F0EE
:20030000CBFF0099094807F0C7FFCFE73829010058060020A82801007042010058280100D1
:200320006828010070280100802801009828010000F05CBC10B54FF08054D4F8B831042070
:200340005B699847D4F8B83104205B6B98470128F8D110BDF0B593B007F0D8F80746FFF7CB
:20036000E9FF4FF08053D3F8B8314FF4A060DB6998470121164B174A9962936A9907FCD51C
:20038000002006F053FC144800F07EFD48226846124911F0AFFE6D4600244FF08056D6F856
:2003A000B43120469B6B9847D6F8B43120469B694FF40051984755F8044F631CEFD10FB1DE
:2003C00013B0F0BD13B0BDE8F04007F0A3B800BF002008600020084028040020BC280100E3
:2003E00010B54FF08054D4F8B83104205B699847D4F8B83104205B6B98470128F8D110BD6C
:2004000038B5002400254FF080531A4A0420C2E90045D3F8B8315B6B9847012801D0FFF7D3
:20042000DFFF4FF08053D3F8B8310020DB6998470121114B114A9962936A9B07FCD54FF052
:2004400080520F4C0F49E368204623F4807323F00103E360D2F8C83104251B689847312063
:2004600040F221210122084B2560E063A1605A6038BD00BF2808002000200860002008401B
:2004800000000140002100040000244310B507F049FA0023044C400E40EAC112C4E9002302
:2004A000D4E9000110BD00BF2808002010B507F039FA0023064C400E40EAC112C4E9002323
:2004C00003F068FE00B910BDBDE8104003F042BE28080020014B9868704700BF00200940DA
:2004E000704700BF0146012000F04AB807F00EBA2DE9F84307F00AF801254FF480724FF089
:2005000000094FF480334FF080561B4CDFF86C802321C8F80090656062606360D6F884313C
:2005200007461B6848469847D6F88431242128461B689847D6F88431252102201B68984799
:20054000236843F4E0232360C4F8089007F0DEF90346D6F8B02103F50073E361C8F8A052E8
:20056000C8F800501420136998470FB1BDE8F883BDE8F84306F0CEBF0020094000002443C9
:20058000431E012B10B419D9042815D100231A4610F004001CBF124C21621BB10121114B79
:2005A000C3F880121AB101220E4BC3F8A02218B101220C4BC3F8C02210BC7047012808D1C5
:2005C0000346074A916110F0020204D0044CE161DEE70023F7E7002BEED01046DEE700BF9C
:2005E0000020094000002443014B1868704700BF5008002010B5FFF779FF194B1860FFF76C
:2006000055FF184BD3F8A0307BB9164BD3F88020EAB9144BD3F8C02032B100204FF48031E4
:20062000114AC3F8C002516010BD4FF480730E4C636007F06BF900F2052020F4FF70094BC8
:2006400020F00100E061D3F88020002AE1D000200121054AC3F88002516004F05DF8D8E77B
:200660005008002000002443002009400122024BC3F8002C704700BF0000084010B506F062
:2006800045FF114BD3F8002C012A0AD04FF0864201210E4C1C60C2F80411C2F8001178B1FC
:2006A00010BD4FF086410A4CC3F8004C074C1C60C1F80421C1F80021C3F8002C0028EFD1B4
:2006C000BDE8104006F026BF00000840502D190051E5CC1A0122014BDA60704700000840A8
:2006E00008B5FFF7CBFFFEE770B5044606F00EFF21460646114804F06BF9104804F066F917
:2007000038B101210E4B0F4AC3F8001253699B06FCD54FF08055D5F8A03160681B68984745
:20072000D5F8A03160689B6898471128F8D106B170BDBDE8704006F0EDBE00BF540800205A
:20074000000022430010094008B5064804F03EF938B10121044B054AC3F8001253699B06D2
:20076000FCD508BD54080020000022430010094010B5A8B14FF0805C0021134C134A6368C8
:20078000012023F4C0536360DCF8A031C2F88011C2F80012DB68984763699B06FCD410BD63
:2007A00004460B4804F012F90028E3D005C814430028FBD1002CDDD0034A536823F4C0539F
:2007C00043F40063536010BD00100940000022435408002038B5054606F098FE0446294648
:2007E000054804F041F90020FFF7C2FF04B138BDBDE8384006F08EBE5408002070B590B1BC
:200800000E460024451E04E0A64206D000F04CF9013415F8010F0028F6D100F09FF9012834
:20082000FBD0204670BD0446F7E700BF10B40C4B0C4C1A780133FF2A0FD1A342F9D10A4C2C
:2008400049B10139631801381978A34200F8011F03F1FF33F8D110BC7047014CF0E700BFCD
:20086000C8FF0100D0FF0100F012005038B54FF08055D5F8B83102205B699847D5F8B8315C
:2008800002205B6B984701280446F7D1D5F8B8314FF40070DB699847034B044A9C62936A33
:2008A0009B07FCD538BD00BF0020086000200840F0B54FF0805540F2F27683B0284CFFF731
:2008C000D5FFD5F8D0312046DB689847D5F8B03115205B699847A36BD5F8B42123F4FE6340
:2008E00023F00203A3636664D36B03209847082112231C4A2046C2F89010D5F8B421009317
:20090000176C132303220221B847D5F8D02160232046576814494FF4E132B847142240F257
:20092000011340F201306263E26A104942F01002E2620A68002A18BF0346236366640B68CF
:200940005BB11520A36BD5F8B02143F05003A363136903B0BDE8F040184703B0F0BD00BF9C
:200960000010004000200240006CDC02580800204FF0805370B5D3F8B83104465B6B0220DE
:200980009847012807D13A4BDB6ED80703D5394A93691907FCD4032C45D0374B1B6803B186
:2009A00070BD4FF08055D5F8B83102205B6B9847012856D12E4BDB6EDA0715D54FF0805687
:2009C0002C4DD6F8D0312846DB689847D6F8B03115205B69984740F2F272AB6B23F4FE6394
:2009E00023F00203AB636A644FF08053D3F8B8314FF400701B6A9847032C23D001211F4B78
:200A00001B4A9962936A9B07FCD5032000F058FA022000F055FA132000F052FABDE870407C
:200A2000122000F04DBA4FF08055D5F8B83102205B6B98470128BDD0D5F8B8314FF40070DD
:200A40001B6A98474FF08054D4F8B8314FF400709B6A9847D4F8B8314FF400701B6B984706
:200A6000CCE7D5F8B8314FF400701B6A9847C5E7002008400010004058080020002008608A
:200A800010B506F043FD0446054800F0FDF90022044B1A6004B110BDBDE8104006F03ABD8F
:200AA000E8040020580800204FF0805310B5D3F8B83104465B6B0220984701280BD0FFF714
:200AC000F7FE4FF08053D3F8D0312146BDE810400348DB691847034BDB6EDB07F1D4EEE7E6
:200AE0000010004000200840184A10B51060D8B14FF080540221164AD4F8B83111614FF41E
:200B000000705B6A9847D4F8B8314FF40070DB6A984701210F4B104A9962936A9B07FCD5F4
:200B2000BDE81040FFF7C4BE03464FF08054084A4FF400701361D4F8B8319B6A9847D4F80E
:200B4000B8314FF400701B6B9847E2E758080020E8040020002008600020084008B54FF053
:200B60008053D3F8B83102205B6B984701280AD1064BD86E10F0010004D0A3F501239869FA
:200B8000C0F3C00008BD002008BD00BF0020084070B5FFF76BFE40F2F2720C4C236C62644A
:200BA00013F0500F0DD00A4D4FF0805606E0D6F8D03120461B6998472B681BB9A369DB06B8
:200BC000F5D570BDC0B29847EEE700BF00100040580800204FF0E022D2F8103D23F00403F7
:200BE000C2F8103D30BFFFF775BD00BF2DE9F84306F08CFC03F02CFD18B1BDE8F84306F08E
:200C000089BC984803F0E2FE0225044648B1636823B19847A84228BF2846C5B22468002C86
:200C2000F5D1FFF763FC904B0446D3F88062002E00F0EF808D4B9E69331A022B00F1A380CD
:200C4000A3F28F23002B4FF0010880F2E5804046854228BF054603F09DFA002840F09B8087
:200C6000012D00F0E98007468146022DC5D1B8F1000F40F0C380002F40F0E4800220611E85
:200C8000FFF77EFC774803F0A1FE06250446002800F0C480A3680BB10220984723692468E2
:200CA00025EA0305002CF5D1FFF714FD6B0700F1B880002D40F0B88000F0D0F90020FFF725
:200CC00057FD4FF080526A4C3920236823F003032360A36843F00F03A360D2F8B8319B696F
:200CE00098470020634B20642064C3F8200406F07FFC062D00F0B2804FF0805600275E4CB4
:200D00005A4D0321EB6AD4F824325C4823F00303C4F82432D6F8D8315B689847D6F8B83192
:200D20009B6B9847EB6A06F083FD554AD6F8D831C2F88071514801215B6898470121D4F897
:200D40002432504A43F00303C4F82432D160EB6A06F0A0FDFFF7F8FCFFF7A8FBFFF7BAFC10
:200D6000404803F033FE044628B1E36803B198472468002CF9D100F03FF906F0CBFBBDE8BB
:200D8000F84306F0C7BB03F005FA00283FF435AF4FF00108002503F005FA0746FFF776FB5C
:200DA0003F1A002F7FF729AFFFF71EFC00EB4729A9EB0403A3F28F22002A4BDA002D3FF462
:200DC0001CAF082B43D404F58034A4EB090339EA230928BFA14649460220FFF7D1FB4FF0E7
:200DE000E022D2F8103D23F00403C2F8103D30BFFFF770FCBDE8F84306F08CBBA6F1410172
:200E00001FB1A1EB0903002B1CDA0420FFF7B8FB31E7B04602201BE7022019E7FFF75AFCDC
:200E200006250022174BDA604FF08053D3F8B83128469B6998473FE7022004F58031FFF7CA
:200E40009FFBCCE749460220FFF79AFB1AE704F10809C0E7012DB4D0012706E7022006F07C
:200E600099FB49E75C080020000024430020094000100940000022430020084000400340B1
:200E800000000443004009400146014803F0A0BD5C0800200146014803F0E6BD5C08002074
:200EA00010B5064803F08EFDBDE810404FF08053D3F88431202103201B6818475C08002050
:200EC000431C10D04FF0805310B5D3F8B43104461B684FF4C042002198470023024840EAA3
:200EE0008404236010BD7047001A4442034BD3F8E000C3F8E00004F0CBB800BF0020024097
:200F00004FF0805370B5D3F8B4310C465B680546984714F00C0320F0E06222F4EC2207D04B
:200F2000042B23D0082B24D00C2B08BF42F4403214F0030310D142F4C04223064FF0805364
:200F4000D3F8B4312846BDE870404FF000011B6848BF42F480221847022B04D0012B08BF29
:200F600042F48042E9E742F40052E6E742F40032DEE742F48032DBE7074AD2F8D030C3405F
:200F8000DB074CBFD2F88030D2F8C03023FA00F000F00100704700BF0020024000224123D4
:200FA00000B585B002A8CDE90223FFF79DFB042006F0E0FA032805D102A8FFF70BFC05B0E3
:200FC0005DF804FB0321042006F0A8FA042006F0D1FA0328FAD11C234FF040520021009041
:200FE000044806F095F902A8FFF7F4FB05B05DF804FB00BF00A00C400022412300B583B070
:201000006846CDE90023FFF76FFB012006F0B2FA012803D00121032006F080FA6846FFF7D1
:20102000D9FB03B05DF804FB0022412300B583B06846CDE90023FFF757FB012006F09AFAED
:20104000012805D04FF08053D3F8800006F036F96846FFF7BFFB03B05DF804FB10B5412382
:20106000002482B06846CDE90043FFF73DFB0320214606F053FA012006F07CFA20B9684664
:20108000FFF7A8FB02B010BD4FF08053D3F8800006F014F96846FFF79DFB02B010BD00BF5E
:2010A00070B5038804463BB140F2CB22934208D182290AD0012070BD40F2CB2323800120C6
:2010C00070BD00232380032070BD094B094E1D69FFF700FB04F0CEFA04F09CFB8021A847D4
:2010E000002880B2E8DD04F08FFBF3689847EFE738290100DC400100024BD3F89C0100F01F
:2011000001007047002008404FF0FF332DE9F0412E4C8046236023680F460B6010F00303E3
:2011200002D1028811050DD406F0F0F9284B0546D3F89C31DB071BD4002D36D0002528468F
:20114000BDE8F081438006F0E1F9214B0546D3F89C31DA07F0D5B8F8003013F4405F07D094
:2011600003F44063B3F5006F04BF1A4BC3F80080194E4CF25032C6F800807368236003E0B5
:201180007368013A236018D02368DBB2002BF7D085B123683B602568EDB2A5F10105B5FAF1
:2011A00085F56D092846BDE8F08106F0B3F92846BDE8F08106F0AEF9EBE71DB123680025A8
:2011C0003B60BCE706F0A6F9F8E700BF600800200020084064080020001004400B4A01E098
:2011E000013A11D0438803F44063B3F5806FF7D14388074A9BB21360428802F44062A2F53A
:201200008062B2FA82F252091046704720A107006008002070B54FF0805482B006F076F945
:20122000D4F8B03105461B6A19209847D4F8B03112201B6A9847D4F8B03119205B6998474D
:20124000D4F8B03112205B699847D4F8B83101205B699847D4F8B83101205B6B98470128EF
:20126000F8D1174A174BD0629862936A9B07FCD54FF080540022144BD4F8B0111A615A61EF
:2012800019200B699847D4F8B03112201B6998479DB140F2FF3600240C4B0D4A0D4D01A9F5
:2012A0002E600D48DC611A60FFF72EFFA0F10100B0FA80F0400902B070BD06F02BF9E8E7B4
:2012C0000020084000200860001004600010044051000706000004600100060400B587B09D
:2012E0001422002101A810F0F7FF4FF0010C40F60A0218499DF8113009686CF303030591C7
:2013000001A86946ADF804208DF81130FFF7FCFE012803D0002007B05DF804FB0E4801E098
:201320000138F8D0BDF8063003F44063B3F5806FF6D1BDF80630094A9BB21360BDF8060010
:2013400000F44060A0F58060B0FA80F0400907B05DF804FB7408002020A10700600800202A
:2013600000B587B01422002101A810F0B5FF4FF0010C40F609029DF8113069466CF3030356
:2013800001A8ADF804208DF81130FFF7BDFE012803D0C0B207B05DF804FB134A01E0013A72
:2013A0001CD0BDF8063003F44063B3F5806FF6D1BDF806300D4A9BB21360BDF8063003F47A
:2013C0004063B3F5806F09D1094B1A7852B90122059808491A7008601046DBE7002007B016
:2013E0005DF804FB0120D5E720A10700600800200E3000207408002030B54FF0805487B043
:2014000006F084F8D4F8B03105465B6919209847D4F8B03112205B699847334BD3F89C31EE
:20142000DA072FD4FFF79CFF002001212E4A2F4BD0629962936A9B07FCD54FF08054D4F887
:20144000B83101209B699847D4F8B83101205B6B98470228F8D1D4F8B03119201B6A9847E7
:20146000D4F8B03112201B6A9847D4F8B03119201B699847D4F8B03112201B6998476DB37E
:2014800007B030BD00211A4B102219610124596102A810F021FF40F60D029DF8153002A804
:2014A00064F3030301A9ADF808208DF81530FFF72BFEA042B6D10F4A01E0013AB2D0BDF85A
:2014C0000A3003F44063B3F5806FF6D1BDF80A30094A9BB21360BDF80A30A3E707B0BDE803
:2014E000304006F017B800BF00200840002008600010046020A107006008002008B505F092
:201500004FFF052803460ED0032806D080B903220C4B0120C3F8D02108BD0222094B012048
:20152000C3F8D02108BD074A0120C2F8D03108BD012801D0002008BD0521024AC2F8D0115C
:2015400008BD00BF0020084008B5FFF763FE012804D1FFF7C3FE012800D108BDFFF74CFFD6
:20156000002008BD08B5FFF7FBFEFFF7B7FE012800D108BDFFF740FF002008BD38B5194B05
:20158000194A1978D2F89C210029184C18BF0024D30700D438BD05F0B9FF02464FF080559C
:2015A0000021134B134898615C611446D5F8B0211961136A19209847D5F8B03112201B6A2F
:2015C0009847D5F8B03119201B699847D5F8B03112201B699847002CDCD1BDE8384005F0B4
:2015E00099BF00BF10300020002008400000C0800010046000004080094B1B782BB10023B2
:201600001946084A116153617047074A074B0849002808BF1346034A11615361704700BF17
:2016200010300020001004600200C0800800C0800000C080044A054B1178054A002918BF96
:2016400000235361704700BF103000200000C08000100460014B1868704700BF640800205B
:2016600038B50B460446154600211A4610F034FE0122637B258062F30303637338BD00BF49
:20168000014B1860704700BF6808002010B5064B06495C6806480C6000234FF43441054A73
:2016A00002F024FC012010BD00300440700800207C08002029170000164B1B6843B370B53B
:2016C0009B68984708B9002070BD05F01FFF0023114A124E5468326814F1804143F10003D6
:2016E000914273F10003054603D3346065B1012070BDFEF7FBFE0A4A0A49136808600133EB
:2017000013603460002DF2D105F004FF012070BD0020704768080020003004407008002019
:20172000780800206C08002010B5134B1B68B3B19B689847D8B9114C236A984701280ED127
:20174000FFF7BAFF636A0446984744B1BDE8104000234FF434410A4A0A4802F0C7BB0023E2
:20176000BDE810408021064A064802F0BFBBFFF7A3FF0446E9E700BF680800203829010066
:20178000291700007C08002070B5204E3368002B39D09B680446984708BB1D4D2B6A984736
:2017A000FFF78AFF6B6A98471A4BB4F1404F1D681CD83268184BB2F90C101A68CB17891A19
:2017C00063EBE273091945EB03052D0243F609520023080245EA116110F0D4FA70BDFFF78A
:2017E0006BFF0C4BB4F1404F1D68E2D9FEF77EFE0A4B1B68C3F17E4303F57203C34248BF7D
:2018000005F1FF35D5E7184670BD00BF680800203829010078080020740800206C080020D6
:2018200010B5104BD3F89C31DA0704D4FFF7F2FC012800D010BD0C4C23695B0204D46FF015
:201840000042094B1A6110BD0122084B08481A7002F03AFF6FF480036FF000422361024BD7
:201860001A61F0E7002008400010046011300020FC04002008B5114BD3F89C31D90704D450
:20188000FFF7C8FC012800D008BD05F03FFE0C4B1A6912020BD40A4B1A6912F00A0F1CBF03
:2018A0006FF00A021A61BDE8084005F033BE6FF4000204481A6102F007FFECE70020084010
:2018C00000100460FC040020014B1878704700BF1230002008B5FFF70FFC30B1034B5888F3
:2018E000A0F10200B0FA80F0400908BDA00800207D2901D90120704708B50A46014602486F
:2019000010F0F8FB002008BD760B002010B588B040F60202182102A8FFF7A2FE0122114921
:201920009DF818300968104C898823F00F03ADF81A1002A801A907948DF818308DF8162081
:20194000FFF7E2FB012802D0002008B010BD02A8FFF744FCA0F10100B0FA80F0400908B087
:2019600010BD00BF4C05002020050020F8B50E4D00200E4E2C680E4F06E02379022B06D02B
:2019800024682B68A34209D02379032BF5D133782BB124682B680120A342F5D1F8BD384635
:2019A00002F092FE0120EBE7680B002010300020FC04002030B583B0FFF74CFE0446FFF707
:2019C0009BFB08B903B030BD0A4801A9FFF79CFB0128F7D1FEF78AFD6FF03F052D1A03E04D
:2019E000FEF784FDC542EDD5638803F44063002BF6D0E7E7010001040B280BD00C2801D04B
:201A000001207047042A08D139B10A4B00201B680B607047082A00D109B902207047064AF5
:201A20004B1E073112F8010903F8010F8B42F9D1002070479C080020CF080020082200B5DE
:201A400085B000210DEB020010F046FC42F2034302A801A9ADF80830FFF756FB20B19DF99B
:201A60000A30803303D0002005B05DF804FB9DF80C0000F00C00A0F10400B0FA80F04009E8
:201A800005B05DF804FB00BF082210B584B00DEB0200002110F020FC02229DF80C3042F2FB
:201AA000034462F301038DF80C300CE0082200210DEB020010F010FC02A801A9ADF8084047
:201AC000FFF722FB38B19DF80C0000F00303022BECD004B010BDFF2004B010BD2DE9F04320
:201AE000DFF8CC8083B081460F46D8F80060FEF7FDFC304D2D1A03E0FEF7F8FCC5421DD5CD
:201B00003479022CF8D0032C13D1D8F800100B7A062BDEB202DDB51FBD4211DD00231D46C3
:201B200028460A680B71C8F800200B7203B0BDE8F0830025284603B0BDE8F0833479E2E74D
:201B40002A460931484610F0D5FA0422D8F80010F31CCB5C184F5BB23B70331DCB5C053671
:201B60003144164E03F03F030DEB0200337010F0C1FA0198FFF708FE114B124A1B781060AF
:201B80005BB100222846D8F8003019681A72C8F800101A7103B0BDE8F0833978042049B2A6
:201BA00089B203F0A7FE2046317803F0A3FEE8E7700B0020F4FEFFFF220800200F300020AC
:201BC000103000209C08002030B583B0FEF78EFC194C241A06E0FFF731FF38B1FEF786FC3B
:201BE000C44203D5FFF788FA0028F4D101A91348FFF78AFA6FF03F04FEF778FC104D241A7D
:201C000006E06888022808D1FEF770FCC44203D5FFF772FA0028F4D1688842F2024398421A
:201C200007D042F20743C01AB0FA80F0400903B030BD012003B030BD00FEFFFF01000104AF
:201C4000A008002008B5FFF757FA30B1044B5B88022B14BF0220012008BD022008BD00BFF7
:201C6000A008002030B583B0FFF746FA30B1134C6388022B02D1012003B030BD0F4801A961
:201C8000FFF742FA012802D0002003B030BDFEF72DFC6FF03F05094C2D1A03E0FEF726FC00
:201CA000C54209D560880228F8D1A0F10200B0FA80F0400903B030BD6088F6E7A008002041
:201CC00008B5FFF723FE012801D0002008BDFFF7C9FFC0B208BD00BF10B5FEF707FC194C7B
:201CE000241A06E0FFF7AAFE38B1FEF7FFFBC44203D5FFF701FA0028F4D1FFF7FDF9124C44
:201D000020B16388022B01D1FFF75EFFFFF774FB00220E4B62801979022908BF1A710C4B8D
:201D20001A79022A04BF00221A710A4B1A79022A04BF00221A71084B1A79022A04BF0022F9
:201D40001A7110BD00FEFFFFA008002038090020C4090020500A0020DC0A002008B5FFF7E6
:201D6000B3FD012801D0FFF7B7FF012008BD00BF10B5FFF7A9FD012808D0FFF73DF9FFF7E4
:201D8000BBF928B11D4B5B88022B01D1012010BD4FF0010C4FF0840E19481A4B44791A497B
:201DA0006CF3830401601860A0F806E044714879164A6CF383000A60A1F806E048715079C3
:201DC00059796CF383006CF383011360A2F806E0A3F806E050715971FFF726F9FFF7B4FBB3
:201DE000012801D0002010BDFFF7C8FBFFF78EFD0128F7D1BDE81040FFF734BFA00800202B
:201E000038090020DC0A0020C4090020500A0020F8B50025354E3648FFF736F8FFF76EFB9E
:201E20008C222946304610F057FA8C222946314810F052FA8C2229462F48304C10F04CFA86
:201E40008C2229462E4810F047FA2E4F2E4B8022294620463E601E607D6010F03DFA42F6D9
:201E600001032A4E2360A623304642F202024FF2F001276101272377E36820F8022B194087
:201E8000234AA369C4E901551A4094F83730C4E9085567F3030384F837301E4BE5830B430D
:201EA000E3601D4B04F118011343A3611B4B02226361A56310F01EF93A4604F11A01301DC5
:201EC00010F018F9FFF754FFB84202D02C462046F8BD04461248FFF7D3FBFFF7D7FB2946B0
:201EE000104802F0FBFA2046F8BD00BF380900200C050020C4090020500A0020A008002008
:201F0000DC0A0020680B0020700B002020090020007C008000011AB10702FF6F28090020B4
:201F200070290100FC04002070B5FFF7CDFC012835D0FFF7E1F8A8B3224E7388022B31D111
:201F4000FEF7D4FA204C241A06E0FFF777FD38B1FEF7CCFAC44203D5FFF7CEF80028F4D199
:201F6000FFF7CAF8D8B100257388022B26D1FFF78BFDFF2822D000F00300441E18BF0124F4
:201F800075B1FFF7A1FC01280AD0FFF7A5FE204670BDFFF799FC012801D0FFF79DFE01241E
:201FA000204670BDFFF7E4FE01280446F1D1FFF7A3F80028E5D02546024ED5E70124002D4A
:201FC000EED0DEE7A008002000FEFFFF70B588B00546FFF791F800285AD03A4B5B88022BAC
:201FE00056D10024FEF782FA6FF01F06361A07E0FFF724FD012854D1FEF778FAC64252D56F
:20200000FFF77AF80028F3D1182142F6014202A8FFF726FB00222C4BE8B28DF8170006938F
:2020200004929DF81430012062F303038DF81430FFF7E2FA02A801A9FFF766F8D0B1234D81
:20204000BDF80A302A7803F4406333B982B3BDF80A3003F44063002BF8D0BDF80A50ADB24A
:20206000B5F5105518BF0125FFF7E4FA3CB9284608B070BD0125FFF7DDFA002CF7D0FFF75C
:2020800023FC0128F3D0FFF727FE284608B070BDFFF76EFE01280446A4D00125284608B032
:2020A00070BD0028B0D034B90225284608B070BDFEF790FDC4E7FFF707FC0128F4D0FFF7DB
:2020C0000BFEF1E7A0080020760B0020103000207D2801D901207047FFF778BF7D2901D952
:2020E0000120704710B50C460A460146034810F001F82046BDE81040FFF768BF760B0020FD
:2021000010B5FFF7E1FB01281AD0FEF7F5FFB8B10C4C6388022B13D1FEF7EEFF60B9FEF77F
:20212000EBFF68B16388022B0AD1FFF7ADFCFF2806D0C0F3801010BDFFF780FC0028EED0A5
:20214000002010BDA00800200B2810B502D00124204610BD082A23D111B3154A01F1080362
:2021600013F8010D8B4202F8010BF9D1FEF7C4FF04460028ECD00F4C6388022B15D1FEF775
:20218000BBFF80B16388022B0DD1FFF71DFD012809D00324FFF766FD012818BF0324D7E7E7
:2021A0000224204610BD0024F4E70024D0E700BFC8080020A008002030B585B0072800F23A
:2021C000BB80DFE800F029323D474A7176045B4C2177FEF791FF002838D06388022B35D1E7
:2021E000FEF78AFF002800F08C806388022B40F08880FFF7E9FC012818BF032400F08180FA
:20220000FFF7B0F901287ED0FFF72CFD012818BF0324204605B030BD012900F08780002910
:2022200074D00224204605B030BDA1F10B030F2BF7D8424CC9B2A37B8B4207D0A173C8E7F5
:202240003E4C6186FEF758FF0028C6D10024204605B030BD394C2186BBE731F00703E0D12C
:20226000364C01F00103228B3548C1F3400543F0020302F4FE4243EA850313430278C1F31D
:202280008001914223830170A3D104F1180102222C480FF02FFF2C4803A9FEF735FF00281B
:2022A0000CBF03240024B4E731F00103B9D1CCB2AFE701F115031A2BB3D86FF014030C2529
:2022C000224A01E052F83530994229DD013DF9D2FEF712FF044600289BD00422002103A843
:2022E0000FF0FAFF1022194B03A803EBC505AB8802A90024ADF80E30ADF80C20FEF704FF3F
:2023000087E700247CE7FFF7D7F97DE70191FFF7DBFA01289AD0FFF7DFFC01990C4678E792
:202320000A4B0B4A03EBC5031360D1E7FFF720FD01288BD003246CE701246AE7A0080020C3
:20234000103000202209002020090020802901004C050020D1B170B50C4684B0182813D816
:20236000DFE800F03EB0AB684D0D16A5736D3912121235312C281224201C0DB564000023CC
:2023800018460B6004B070BD0120FBE7022070475D4B00201B681B680B60F3E70A23002057
:2023A0000B60EFE7202300200B60EBE7032300200B60E7E7052300200B60E3E76FF01403CA
:2023C00000200B60DEE71A2300200B60DAE70B2300200B60D6E74D4B00201B780B60D1E740
:2023E000FEF78AFE002800F08A80494B5888A0F10203B3FA83F35B0900202360C2E700233E
:20240000434A0B60137E03F001030B60127E520744BF43F002030B603E4B1B78002B44D0E7
:202420000B68002043F004030B60ABE77D2300200B60A7E7364B00201B8E0B60A2E7364B5A
:2024400000201B785BB20B609CE7FEF755FE00283FD02F4B5B88022B3BD100260822002148
:202460000DEB02000FF038FF02229DF80C3042F2034562F383038DF80C300AE0002102A86A
:202480000FF02AFF02A801A9ADF80850FEF73CFE48B39DF80C2002F00C02082AEED03EBBEF
:2024A0009DF90A30236080332BD000206AE7184B002093F91C300B6064E7154B00205B8E30
:2024C0000B605FE7124B00209B7B0B605AE7182392E7FFF74DFC01280646BFD06FF07F0334
:2024E000032023604EE780238DF80A30002EF5D0FFF7EAF90128D3D0FFF7EEFBD0E7034628
:202500007AE703203EE700BF4C0500200F300020A0080020103000202208002008B500F064
:2025200077F880B208BD00BF00F004B938B54FF08055D5F8B83104205B699847D5F8B83195
:2025400004205B6B984701280446F7D1D5F8B83140F20140DB699847034B044A9C62936A94
:202560009B07FCD538BD00BF0020086000200840034B1B68002B0CBF02200120704700BFC4
:202580002C0C0020F8B5038804465BB3B3F5847F2DD1194B1B788B4201D00120F8BD174DDB
:2025A0002B686BB14FF080530026154AD3F8CC3157685B680220984739462B6898472E600B
:2025C0004FF08053D3F8B83140F201409B6A984701210C4B0C4A9962936A9B07FCD50B4851
:2025E000FEF758FC4FF4847323800120F8BD002323800320F8BD00BF230800202C0C0020DF
:202600000080024000200860002008405005002070B52B4B1B686BB12A4900230A4612F869
:20262000014B002C3CD10133042BF8D125462046294670BD4FF08053D3F8B83104205B6BCC
:202640009847012837D0FFF771FF1F4A1F4B92681A4210D101221E4BC3F8F02FD3F8F02FAB
:20266000002AFBD110464FF4807104F00BFE0122184BC3F8A82204F049FF0646124A9368F3
:20268000DB07FCD54FF08053D3F8CC3102205B68556898470446002EC9D104F03BFFC6E73F
:2026A00000200D4AC85402EBC30552F833406D682046294670BD094BDB6B9A07C5D4C2E7C1
:2026C0002C0C0020300C0020008002400100008000900240000050423008002000200840DF
:2026E00038B500244FF080510E4D0F4AC5F8A842D368D1F8B01123F00103D3604B6931204A
:202700009847224620464FF4807104F0BBFD0121064BC5F8A812224619780548BDE83840DF
:2027200001F0A0BF0000504200800240230800206405002010B5074C2378802B00D010BD26
:2027400001F0C4FE0346002123700348BDE8104001F0C4BE230800206405002008B504F091
:20276000D5FE003818BF012008BD00BF80F31088704700BF827A044B03EBC2035B68181A5E
:20278000B0FA80F040097047340C00202DE9F0434E4F827A0121064685B007EBC20202E0A2
:2027A000C2E8441F4CB1D2E84F3F13F0FF05F7D00325284605B0BDE8F083BFF35F8F4FF0B7
:2027C0008059B37ADFF8088107EBC3077E60D9F8B431F078DB6B9847B37A08EB03135868C0
:2027E000D9F8B8315B699847B37AD9F8B82108EB0313526B5868904701280746F4D1D9F83C
:20280000B831DA69B37A08EB031398689047314B314A9F62936A9B07FCD503204FF08051E4
:20282000B37A1B0158F80320536923F00F035361B37A1B0158F803301862D1F8C4311F68BC
:20284000B37A1B0158F8030033893BB1337A002B35D1737A002B0CBF032401240823224694
:202860004FF08054019373681C4900930023B847B37A96F800C0D4F8B471B27871781B0121
:20288000CDF800C058F803007F6C4FF0FF33B847B37A1B0158F80320536843F002035360A3
:2028A000B37AD4F8C4211B01126958F8030003A990470028F4D1284605B0BDE8F083737AB8
:2028C000002B14BF03240224C8E700BF340C0020042A01000020086000200840006CDC0276
:2028E00070B5264D837A05EBC3025268904201D0042070BD4FF08051214A044602EB031318
:202900009868D1F8B8311B6A984701211D4B1E4A9962936A9B07FCD54FF08056D6F8B4317C
:2029200060789B6B9847D6F8B4314FF4005160789B699847D6F8B431A0789B6B9847D6F85A
:20294000B4314FF40051A0789B699847D6F8B43120789B6B9847D6F8B4314FF400519B6988
:20296000207898470023A27A05EBC2025360A27ABFF35F8F184605F8323070BD340C002034
:20298000042A010000200860002008402DE9F04F9846334D837A164605EBC3056A6885B04D
:2029A000904203D0042005B0BDE8F08F4FF080592C4D044605EB03135868D9F8B8310F46C5
:2029C0005B6B9847012849D1A37A2749886F05EB0311C9681B01084240D0DDE90E210A449D
:2029E000B242B8BF3246002A019235D0D8BF0DF10C0A24DD4FF0000B0DF10C0A5E45D4BFF2
:202A0000002117F80B10E8580391D9F8C4315B689847A37A51461B01E858D9F8C431DB6816
:202A200098470E9B5B45C4BF039B08F80B30019B0BF1010B5B45A37A4FEA0313DED14FF074
:202A4000805601E0A37A1B01D6F8C421E8585146136998470028F5D10020A4E70520A2E75A
:202A6000340C0020042A0100002008402DE9F0430024012607460D46DFF85480DFF85490C5
:202A8000B1B084B1E30717D54246C0212B78684605F04EFC6846B847082E15D0013401369D
:202AA0000135002CEED14246C02168462B7805F03FFC6846B847F1E74A46C021684605F072
:202AC00037FC6846B847DFE731B0BDE8F08300BF242A0100C846010010B5BAB00A46044671
:202AE000282168460CF0DCF96B46C021034A0AA805F01EFC0AA8A0473AB010BD2C2A0100C7
:202B000009B1FFF7B3BF10B5B0B00446C021044A684605F00DFC6846A04730B010BD00BF48
:202B2000302A0100F0B5038805460E46B1B01BB3702B1CD1274B284F1868436831463A6887
:202B400026489847012838D96C46254AC021204605F0EEFB2046B04730462249FFF786FFEF
:202B6000C0212046204A05F0E3FB2046B047002303202B8031B0F0BD13781446202B03D1F1
:202B800014F8013F202BFBD0002BDDD0202120460FF014FC104F386018B1002300F8013B2E
:202BA0003860204600F0E0FF0A4B186040B100220A4B1A8070232B80BFE7002031B0F0BDE7
:202BC0006C46C0212046094A05F0B2FB2046B047BBE700BF480C0020440C00204C0C0020ED
:202BE000782A0100E01600207C2A0100402A010000F0A2BF30B503880446B1B023B10023A7
:202C00000320238031B030BD0D46064AC021684605F08EFB6846A847034B04489B6A984755
:202C2000EDE700BF802A0100EC4E0100A42A010030B503880446B1B023B100230320238074
:202C400031B030BD0D46064AC021684605F070FB6846A847034B0448DB6A9847EDE700BF26
:202C6000AC2A0100EC4E0100A42A01002DE9F04103888046B0B033B100230320A8F8003081
:202C800030B0BDE8F081124A0D466846C02105F04FFB6846A8470F4801F098FE07460028D1
:202CA000EAD00D4E7C6823685BB1A3683246C021684605F03DFB6846A84754F80C3F002BE6
:202CC000F3D1384601F0E8FE07460028EAD1D3E7D02A0100940C0020342E010030B5038863
:202CE0000446B1B023B100230320238031B030BD0D46094AC021684605F01AFB6846A847C2
:202D000028460649FFF7FCFEC0216846044A05F00FFB6846A847E6E7E82A0100E016002097
:202D20007042010070B503880446B0B023B100230320238030B070BD0D46404AC021684650
:202D400005F0F6FA6846A8473D4BC0213D4A1B683D4E684605F0ECFA6846A8473368C02151
:202D60003A4A684605F0E4FA6846A8473368002BDDD005F08BFB064603F0CEFBC021034691
:202D8000334A684605F0D4FA6846A847314BC0211B68314A684605F0CBFA6846A8472F4BCE
:202DA000C0211B782E4A684605F0C2FA6846A847C02168462B4A05F0BBFA6846A847A6B387
:202DC000304605F07DFB01462846FFF799FEC0216846254A05F0ACFA6846A847FDF756FB53
:202DE0000346224AC021166868469B1B204ADB0905F09EFA6846A84708F008FA1D4A034639
:202E0000C021684605F094FA6846A84707F0FCFE03460E46DB096846C021174A43EA4663CB
:202E200005F086FA6846A84781E7C0216846134A05F07EFA6846A847D0E700BFFC2A010085
:202E4000541D00200C2B0100501D0020242B01003C2B01005C1D0020502B010024300020DB
:202E6000682B0100802B0100704201006C2500209C2B0100C42B0100EC2B0100942B01001E
:202E80002DE9F04704888146B4B034B100230320A9F8003034B0BDE8F0870D4607F080FE6A
:202EA00028B10220A9F8004034B0BDE8F08707F02BF80646002840D0C021244A04A805F0A8
:202EC00037FA04A8A847DFF888A0DFF88880224F306901F07BFD0446F288B388C021009263
:202EE00004A8524605F024FA04A8A847F4B1628A237D0292228AC0210192607D4246009006
:202F000004A805F015FA04A8A847A11D2846FFF7F7FD3A46C02104A805F00AFA04A8A847AF
:202F2000204601F0B9FD04460028E0D1304606F0F1FF06460028CBD1A8E7C021074A04A888
:202F400005F0F6F904A8A847A0E700BF2C2C01003C2C0100682C0100704201000C2C010069
:202F60002DE9F04306880746B3B0002E29D188461446002A2FD01578002D3CD12846434990
:202F80000FF082FA00282DD10123414D2B6014B12378002B3AD100223E4E2B683260B3B97E
:202FA0003D4B3E4A02ACC021009220463C4A05F0BFF92046C047306806F0CEF9286806F0FF
:202FC000B1F9002303203B8033B0BDE8F083354B324A02ACE7E715462C4928460FF054FA48
:202FE0000028D1D0284630490FF04EFA00283DD1274D2860CBE7202110460FF0DFF925461D
:20300000002831D000F8016B0446B7E7202120460FF0D4F908B10023037020461B490FF0B0
:2030200033FA8146A0B902ACC021204A2046194E05F07EF92046C047C6F800902B6883B987
:20304000164B31681A4A002908BF1A46124BAAE7204615490FF018FAA0B90E4E02AC30600C
:20306000ECE7104B0D4A9EE7044687E72B46114AC02102A805F05CF902A8C04700230220F7
:203080003B80A1E723460C4AF2E700BFCC2C0100640C0020680C0020BC2C0100B02C0100B3
:2030A000302D0100C02C0100D02C0100F02C0100B42C0100D42C0100102D01002DE9F04144
:2030C00003880446CEB053B91C4B0E461B7B63B9C0211B4A1EA805F02BF91EA8B04700231F
:2030E000032023804EB0BDE8F0810CF0FDFC0028EED0144F386802F065F90546C021124A40
:203100001EA805F015F91EA8B047002DE7D0DFF83C802A46782168460CF0EEFB6B464246DD
:20312000C0211EA805F004F91EA8B0472946386802F010F905460028EBD1D0E7E02D00201C
:203140004C2D0100D4070020642D0100342E01002DE9F04303880546B1B02BB10023032063
:203160002B8031B0BDE8F0830E46154AC021684605F0DEF86846B047124CDFF84C90DFF811
:203180004C8004F1600714F8023C13B1237C012B03D92034BC42F6D1E0E74A46C021684653
:2031A00005F0C6F86846B04721463046FFF794FC4246C021684605F0BBF86846B047E8E721
:2031C000742D0100EA2700208C2D01007042010070B503880646B4B023B100230320338082
:2031E00034B070BD0C46794AC021794D04A805F09FF804A8A0472B7B002B00F0D3806B7B3D
:20320000C021744A04A805F093F804A8A047724B1B699847002800F0CD80704AC02104A884
:2032200005F086F804A8A0476D4AC02104A805F07FF804A8A04720466A49FFF74DFC95F860
:203240005430C021684A04A805F072F804A8A047664AC02104A805F06BF804A8A04720462B
:203260006349FFF739FC634AC02195F8403004A805F05EF804A8A047AB7BC021032B96BFD8
:203280005D4A5E4B52F8233004A85D4A05F050F804A8A047AB681A8C002A00F08D80574B9C
:2032A0005849012A08BF0B46C021574A04A805F03FF804A8A047EB8AC021544A04A805F0A8
:2032C00037F804A8A0472A7EC021FF2A16BF6B8B4FF0FF33534304A84D4A05F029F804A8A3
:2032E000A04795F85E30C021032B96BF494A434B52F8233004A8484A05F01AF804A8A047D2
:20330000C021464A04A805F013F804A8A047686C002853D00CF016FC01462046FFF7DCFB56
:203320006B6CC0219B793E4A04A805F001F804A8A047B5F84A30C0213A4A04A804F0F8FFE9
:2033400004A8A047AB8AC021374A009304A8B5F8483004F0EDFF04A8A047EB7BC021334AA8
:2033600004A804F0E5FF04A8A04795F85B30C0212F4A009304A895F85A3004F0D9FF04A8F6
:20338000A0476A7C2B7C00921344AA7C01930292C02195F85730274A04A804F0C9FF04A808
:2033A000A0471AE7C021244A04A804F0C1FF04A8A04712E7214A31E7214B75E7C021214A53
:2033C00004A804F0B5FF04A8A047B2E7A42D0100E02D0020C82D0100EC4E0100DC2D010033
:2033E000FC2D0100FC2D0020082E0100182E01000C2E0020242E01009C370100902D01009D
:203400002C2E01009C2D0100382E0100442E0100602E01008C370100842E0100942E0100E4
:20342000AC2E0100C82E0100D82E0100F42E0100082F0100382F0100B42D0100EC2D0100F4
:20344000982D0100C02E010030B503880446B1B023B100230320238031B030BD0D46054A6F
:20346000C021684604F064FF6846A84702480CF0FFFDEEE7782F0100A42A01002DE9F041F4
:20348000B0F800800546B0B0B8F1000F3CD10E461446002A4CD01778002F69D138464D4994
:2034A0000EF0F2FF00284AD101234B4F3B6014B12378002B66D108F04BFD0346474C5968E2
:2034C0009A680068DB680FC43B681BB3444F3B699847044600283BD1424AC021684604F058
:2034E00027FF6846B04730463C49FFF7F5FAC0213D4A684604F01CFF6846B047BB682146CD
:2035000036489847FB689847002303202B8030B0BDE8F081324C2369984708B3C021334A23
:20352000684604F005FF6846B047E3699847EBE71746284938460EF0A7FF0028B4D0384629
:203540002B490EF0A1FF002838D1234F3860AEE7C0216846274A04F0EBFE6846B047D3E74D
:20356000C0216846244A04F0E3FE6846B047CBE7202110460EF022FF2746E8B100F8018BE2
:2035800004468BE7202120460EF018FF08B100230370204611490BF00FFC8046002893D14C
:2035A0002346C021154A684604F0C2FE6846B0470220A5F80080AAE704466FE73B46C02189
:2035C0000F4A684604F0B4FE6846B047002302202B809CE7CC2C0100600C0020700C002005
:2035E000EC4E0100C02F0100E42F010008300100D02C0100EC2F010030300100AC2F0100FD
:20360000942F0100F0B503880646CBB023B10023032033804BB0F0BD334A0D461AA8C02107
:2036200004F086FE1AA8A84709F08AF809F018F8044600284FD0C0212C4A1AA804F078FEC9
:203640001AA8A8472846211DFFF746FAA369002B2ED1C021264A1AA804F06AFE1AA8A84781
:2036600008F066FA00282EDD08F062FAC0210346204A1AA804F05CFE1AA8A84708F06CFBB7
:2036800004460028C3D01C4F2246642101A808F0CFFB3A46C02101AB1AA804F049FE1AA896
:2036A000A847204608F05EFB04460028ECD1AEE7C021124A1AA804F03BFE1AA8A84708F0CB
:2036C00037FA0028D0DCC0210D4A1AA804F030FE1AA8A8479BE7C0210A4A1AA804F028FE85
:2036E0001AA8A847BCE700BF483001008C2D01007430010098300100B830010058300100A4
:20370000C03001008C300100F0B5078804460D46B3B0D7B19B2F13D1474E3368002B4FD017
:20372000464800F031FD70B13368002B48D0C021434A02A804F0FCFD02A8A847002333608A
:2037400000230320238033B0F0BD1646002A5BD01378002B58D0202110460EF02FFE00B1EE
:203760000770304637490BF027FB0746002857D0354AC02102A804F0DBFD02A8A847284646
:203780003049FFF7A9F9C021304A02A804F0D0FD02A8A8472E4A2F4B1268274E4FF4207104
:2037A00026481A60356000F0DBFC042300228021244808F047F99B2323803368002BAFD190
:2037C000254AC02102A804F0B3FD02A8A84728461C49FFF781F9214A214B16881F78FCF770
:2037E00055FE4FF47A721549009709683346401A02FB00F0C0090190C0211A4A02A804F0E4
:2038000097FD02A8A8479BE7C021174A02A804F08FFD02A8A84700230220238033B0F0BD7C
:203820003346C021114A02A804F082FD02A8A8470220278087E700BF500C0020980C0020E7
:2038400028310100840C00201C310100704201004C0E0020540C002034310100F82F0020B6
:203860001330002050310100D4300100003101002DE9F04303880646B3B02BB10023032087
:20388000338033B0BDE8F0830D4609F079F80446002844D0C021274A02A804F049FD02A857
:2038A000A847DFF89490DFF894804A46C02102A804F03EFD02A8A847204609F059F8014659
:2038C0002846FFF709F94246C02102A804F030FD02A8A847204609F04DF801462846FFF766
:2038E0000FF9627C1649042A94BF51F82270154F237CC021144A02A8009704F019FD02A8F0
:20390000A847C021114A02A804F012FD02A8A847204609F03BF804460028C6D1AEE7C02125
:203920000B4A02A804F004FD02A8A84702203480A7E700BF8C3101008C2D0100A431010089
:2039400078370100902D0100AC31010070420100703101002DE9F043B3B08046C021114A18
:20396000114C02A804F0E4FC02A8C0472568ADB1DFF8389063681E68304600F0CDFC074664
:203980002B464A46C021CDE9006702A804F0D0FC02A8C04754F80C5F002DEBD133B0BDE8E5
:2039A000F08300BFC4310100AC050020D43101002DE9F04306880446B3B0002E39D10F46F7
:2039C000154612B11378002B39D1002000F082FC00253C4B18602B46C0213B4A02A804F0E2
:2039E000A7FC02A8B8473846FFF7B4FF00230220238033B0BDE8F083202140460EF0DEFCD2
:203A000008B1002303700A22404601A90EF008FF2E4B1860002841D1019B43452CD0336810
:203A2000984203D00146284600F030FC3846FFF791FF00230320238033B0BDE8F0832021DF
:203A400010460EF0BBFC814658B38046284608F8016B00F03FFC1B4E294630601C480EF0F4
:203A600013FDB8B999F80130002BC5D14FF0FF324FF00008154B1A604346C021154A02A83E
:203A800004F056FC02A8B84700230220238033B0BDE8F08333680133E4D19CE70428EBD85E
:203AA000BDE7284600F016FC0346064E2946084833600EF0E9FC0028D8D033680133D5D1DB
:203AC00089E700BF800C0020D42C01006C0C0020E8310100102D010030B503880446B1B0FF
:203AE00023B100230320238031B030BD054A0D466846C02104F01CFC6846A847FCF7F0FD81
:203B0000EFE700BFEC310100074A106858B130B40024064D06482970064914600B80006828
:203B200030BC00F0D1BD7047500C002013300020540C0020F82F002010B5074C204600F050
:203B400041FF2046054900F043FFBDE810400449044807F0CFBF00BF940C00207405002014
:203B6000093B0000580C002070B505460E4800F02DFFA8B106467468206818B90AE054F88B
:203B80000C0F38B129460EF07FFC23460028F6D1184670BD304600F07FFF06460028EAD143
:203BA0000023184670BD00BF940C002010B503880446442B06D0452B0ED0BBB10023238079
:203BC000032010BD0D4B1B788B4212D18AB1002045230B49088023800A490948FEF7A2FFDE
:203BE000012808D944232380012010BDFFF700F8F8E7012010BD002010BD00BF1D300020EF
:203C0000A80C0020093C00000146014804F044BB2C2A01000021014800F060BC7C0500209A
:203C200038B5664CFCF7C2FAFCF7EAFB00F05AFD00F086FC0021624800F050FC00F042F973
:203C4000FCF714FD00F0D2F900F0AAFDFCF7EAFA01F038FA01F098FE00F072FD2368022B76
:203C60003BDC0822574958480EF044FA0021574800F034FC4FF0FF3008F040FA2368054631
:203C8000022B13DCFCF7EAFAFFF7C4FF504800F0C3F8FCF7F3FC00F06FFC0446E4B2FCF725
:203CA00019FD002CF7D1FCF743FBF4E7494A4A494A4804F0F1FA4A4804F0EEFA2368022B31
:203CC000E0DD05B10235284600F0A0FA2368022BD8DD444804F0E0FAD4E73E4A3E493F482A
:203CE00004F0DAFA404804F0D7FA2368022BB8DD384A3949394804F0CFFA3C4B3C48196894
:203D000004F0CAFA2368022BABDD324A3249334804F0C2FA374B3848196804F0BDFA2368D0
:203D2000022B9EDD2B4A2C492C4804F0B5FA334B3348196804F0B0FA2368022B91DD254A2D
:203D40002549264804F0A8FA48F2A5112D4804F0A3FA2368022B84DD1E4A1F491F4804F0B7
:203D60009BFA0221284804F097FA2368022B7FF778AF184A1849194804F08EFA234B2448C7
:203D8000198804F089FA2368022B7FF76AAF114A1149124804F080FA1E4804F07DFA2368EB
:203DA000022B7FF75EAF074800F040FA2368022B7FF757AF0B4804F06FFA52E7580600203F
:203DC0009C050020E01600207C2B002078070020585001009C3801006828010070280100FE
:203DE0008039010070420100A4380100EC4E0100DC3801006C490100EC380100DC40010031
:203E0000F83801000439010020390100FA2F0020583901006839010010B50446006830B104
:203E2000002100F05BFB54F8040F0028F8D110BDF0B50388054683B033B14A2B18D188295D
:203E40001BD0012003B0F0BD1B4800F0BFFD044630B1A168201D00F083F92468002CF8D189
:203E60000122164B1A704A2301202B8003B0F0BD002303202B8003B0F0BD0F48019200F070
:203E8000A5FD04460028EED0019A031D9A4205D02468231D002CE6D09A42F9D1084E2146D3
:203EA000054800F0E1FDD4E90523376832600BB1E06998473760D6E7AC0C0020143000205D
:203EC0004C0E002010B50024054B06481C7000F079FD2146BDE81040034800F0FFBA00BFE0
:203EE00014300020AC0C00208C050020F8B50E4C0E4D27782E680446C0E90623466137B98B
:203F000081602146BDE8F840094800F061BD094B04302B6000F024F921462E600448BDE817
:203F2000F84000F055BD00BF143000204C0E0020AC0C00208C05002070B50C4B04461B78C8
:203F40002BB92146BDE87040094800F041BD094D094B2E6804302B6000F00CF921462E6099
:203F60000348BDE8704000F033BD00BF14300020AC0C00204C0E00208C05002010B50A4B81
:203F800004461B783BB9C0E903332146BDE81040064800F069BD043000F00EF92146BDE87A
:203FA0001040024800F060BD14300020AC0C002038B50C4B04461D786DB90B4800F006FD8F
:203FC00038B1A04202D10BE0844209D000680028FAD1012038BD0430BDE8384000F0D4B87B
:203FE000002038BD14300020AC0C0020704700BF10B5FCF74BFA0B4B1A68D2E9003192683F
:204000000B44191A52B1D2E9003423441B1A9268994228BF1946002AF5D14318024A13606B
:2040200010BD00BFB40C0020B00C00202DE9F8430388054653B3592B2BD187292ED0822932
:204040001FD14FF000092B4FDFF8AC803C68C4B1002603E0A36826469BB11C46204600F00E
:2040600091FB0028F6D022468821E06800F0FAFA00282BD0404600F027FBA3682646002B2C
:20408000EBD159232B800120BDE8F883194A1360F7E700232B800320BDE8F883154F0020B3
:2040A000396819B9EDE789680120D9B1CB689342F9D000B139608B68002BE2D0D868904220
:2040C0000BBF9B6819468B609B68F5E7A368E0606EB1B3603B68C4F808902BB1FFF788FF1D
:2040E0003C68B4E73960CCE7044A1360C9E73B60F1E700BFB40C00209C050020B00C002015
:2041000010B50446104800F0DFFA1049E3680A684BB142B194420FD0134601E09C420BD0C2
:204120009B68002BFAD10A4BA2601B680C60E360BDE81040FFF75CBF054B1B68E360BDE83C
:204140001040FFF755BF00BF9C050020B40C00204C0E0020014800F0B7BA00BF9C05002001
:2041600010B5044600F0F8FA2046BDE81040FFF7C7BF00BF10B5044600F0F6FA2046BDE8BE
:204180001040FFF7BDBF00BFC068B0FA80F04009704700BF024B1868003818BF01207047E9
:2041A000B40C0020024B186808B1024B18687047B40C0020B00C002010B5124B044619686C
:2041C000814214D00B462BB19A68A24206D01346002BF9D10023C4E9023310BDA2689A602B
:2041E00049B1FFF705FF0023C4E9023310BD82681A60002AF5D10022034B1A600023C4E9EB
:20420000023310BDB40C0020B00C002000B58BB00246282168460AF043FE6946024804F089
:204220003BF80BB05DF804FB2C2A010028B32DE9F041002504460126114FDFF8488065B118
:20424000EB070FD53846217804F026F8082E12D0013501360134002DF2D13846217804F0AA
:204260001BF8F5E7404604F017F83846217804F013F8082EECD1BDE8F081034804F00CB8A4
:20428000242A0100C8460100302A0100042900D97047F8B50D46064601460C480EF0F4F8D7
:2042A0000B4C0746216851B157B9D4E90123AB42A8BF2B46136054F80C1F0029F4D1F8BD8C
:2042C00030460EF0E1F80028EFD0F4E7E8310100AC050020D0B1F8B50E4F396899B1064622
:2042E0003D46002403E055F80C1F013459B130460EF0CAF80028F6D104EB440407EB8404A7
:2043000063681868F8BD4FF0FF30F8BD4FF0FF30704700BFAC05002004289ABF024B53F8A8
:2043200020000248704700BF483A0100C039010010B541600446FCF7CDF8206010BD00BFAC
:2043400010B50446FCF7C6F8D4E900316FF000420B44C01A90422CBF0020012010BD00BF5B
:204360002DE9F84FDFF8C8800546D8F800400E46844257D0002C43D0234601E0002B3FD062
:204380001B689D42FAD1002B3AD02A4FAB7BD7F8009053B30023AB73002C45D04FF0020AEA
:2043A0004FF0010BA54211D0A37BDB070ED5A36863B12A4687213C6084F80EA004F10C0009
:2043C00098470238012828D984F80EB02468002CE8D1AB683BB1B54205D0002283213D60C1
:2043E00005F10C009847D8F80040A5420AD02CB12368AB420CD01C46002CF9D1C7F8009033
:20440000BDE8F88F2B68C7F80090C8F80030F7E72B682360C7F80090F2E721462046FFF7BF
:204420009FFFD3E72346AEE7AB68002BD3D1E5E7500E00204C0E002038B583687BB1044632
:204440000220A07309480D46046004F10C0098470238012804D9832D02D00123A37338BD4E
:2044600021462046BDE83840FFF77ABF4C0E00200022F8B51249134B0C681A70D4B1012578
:204480000227114E01E02468A4B1E37B002BFAD0A36804F10C00E581002BF4D00022822159
:2044A0003460A77398470238012804D9A5732468002CEAD1F8BD21462046FFF751FFE2E713
:2044C000500E0020183000204C0E0020024B1878421C1A70704700BF16300020F8B5164ACE
:2044E0001568854207D0044635B12B4600E01BB11B689C42FBD1F8BD002CFCD025600126CE
:20450000146000220D4DA3682F68A673A2815BB10A4602212C60A17304F10C00812198472C
:204520000238B04202D9A6732F60F8BD21462046FFF716FFF8E700BF500E00204C0E0020A9
:2045400000234FF08A0C074A10B4074813700749074A084C80F800C00B701360236010BC12
:20456000704700BF1530002016300020173000204C0E0020500E00202DE9F8432E4D2B782C
:20458000FBB92E4E3378C3B12D4C2E492278013B02EB4200013202F01F022270DBB201EB86
:2045A000800211F820803370D2E9017464B1B8F1810F1DD0A27BD2071CD428781844BDE83B
:2045C000F883FFF755FFDCE71F4A146854B9F4E7A37BD90704D53A4641462046FFF72CFF21
:2045E00024681CB32B78002BF2D0FFF741FFEFE70122A273D4F80890B9F1000FDDD002239D
:20460000A373124B3A4641461C6004F10C00C8470238012806D9B8F1830F03D00122337876
:20462000A273CAE721462046FFF79AFE337828781844BDE8F88300BF183000201730002004
:2046400015300020CC0C0020500E00204C0E0020024A034B10781B781844704717300020D6
:204660001830002030B40F4C94F800C0BCF1200F15D005460C4B00201B7863440CF1010C80
:2046800084F800C003F01F03084C03EB430304F8231004EB8303C3E9012530BC7047012007
:2046A00030BC70471730002015300020CC0C002038B5837B034CDB07256801D5FFF7BCFE64
:2046C000256038BD4C0E002018B1837B013B012B00D970470123024AC3731370704700BF88
:2046E00018300020FBF7FCBE024610B5094C5360206828B1029B116093600020226010BDC0
:20470000029B0846936011602260FBF7EBFE002010BD00BF540E002010B5084C206858B115
:20472000D0E90131002222609847236823B1BDE810401868FBF7D6BE10BD00BF540E0020A3
:20474000034A04499079D37903EB00230B807047E0160020FA2F002010B541600446FBF716
:2047600095FE206010BD00BF10B50446FBF78EFED4E90021C2F1010303448B4284BF5218B7
:20478000226010BD10B50446FBF780FED4E90032C3F10103184482422CBF0020012010BD8B
:2047A000074B82B001AA9A42019304D9CD2103F8011B9342FBD10021024802B0FFF78EBE78
:2047C0003B3000206406002038B5124CFBF782FF2378114DCD2B08D0AC4202D30EE0AC429E
:2047E00012D014F8013FCD2BF9D1AC4202D30BE0AC4209D014F8013FCD2BF9D0FBF76AFFEC
:20480000AC4203D2281B38BDFBF764FF4FF0FF3038BD00BF3B3000200050002070B503887B
:2048200004463BB1912B0ED11F48FFF7ADFC70B9012070BD4FF4A0611B48FFF791FC91234C
:204840002380012070BD00232380032070BDFFF7BBFF164E164B051EA6EB030615DB002E01
:2048600013DBB5420DDD134B1B68002B09DD124A1249134803F010FD32462946114803F032
:204880000BFD0948FFF776FCD9E70A4B1B68002BF7DD094A09490A4803F0FEFC32462946F5
:2048A000094803F0F9FCECE7580E0020005000203B300020580600205C3A0100643A0100B7
:2048C00070280100943A0100683A01000023013A0160027143718371704700BF90F805C030
:2048E000827903460079ACEB020230EA020209D001201A6802F80C105A79197902440A40BB
:204900005A717047002070478179427990F804C0521A12EA0C0F034606D000684A1C02EAE1
:204920000C02405C9A7170474FF0FF30704700BF0023013901704370837070474278817849
:2049400003460078511A30EA010104D0013202405A70012070470020704700BF42788378D9
:204960000178D31A31EA030314BF10464FF0FF30704700BF034680785A781978121A0A4287
:204980001DBF421C0A409A704FF0FF30704700BF8278437801789B1A0B4214BF10464FF00D
:2049A000FF3070474378827800789B1A184070474378817802785B1A13420CBF012000201C
:2049C000704700BF00230360704700BF006870470368D3B110B4002400E0134699420ED07D
:2049E0001A681C46002AF8D100230B600368C3B11A461B68002BFBD1116010BC70470A6833
:204A00006CB1226000221A60EEE700230B6003684BB11A461B68002BFBD11160704702602D
:204A2000F0E70160E9E70160704700BF30B405684DB12B46002400E01346994207D01A6846
:204A40001C46002AF8D10D60016030BC70470A683CB1226000221A6005680D60016030BCEC
:204A600070470260F6E700BF03688BB110B4002400E0134699421A6804D01C46002AF8D133
:204A800010BC70472CB1226000221A6010BC704770470260F8E700BF00B10068704700BFCF
:204AA00010B504464288002140680DF015FC23886288A0680021BDE8104003FB02F20DF0A4
:204AC0000BBC00BF30B44588ADB10022436802E00132AA420CD019460C780133002CF7D18C
:204AE00001230B700588806802FB050030BC7047002030BC70472846F8E700BF10B444889E
:204B000082685CB18A420DD00023B0F800C001E0914208D00133A3426244F9D14FF0FF30E7
:204B200010BC704700234268D15C0029F6D00021D154084610BC704783688B4208D8428890
:204B4000008800FB023081422CBF002001207047002070474188034649B100205B681944D7
:204B600013F8012B02B901308B42F9D170470846704700BF10B5044690F84CC023460CF1F7
:204B8000010C8021064A203084F84CC0FFF7AEF9044B2246BDE8104000201978FFF762BD30
:204BA000754B000019300020F8B50388044633B1B3F5867F08D182290AD00120F8BD4FF442
:204BC000867323800120F8BD002323800320F8BDFDF7C4FDBFF35F8F0022114B1E681A60F2
:204BE000BFF35F8F0F4DFDF7C1FD28680028E6D00D4F03E055F8040F0028E0D090F8453025
:204C000026FA03F3DB07F5D5FFF7D2F90028F1D02B683A4618460221FFF768F9EAE700BFAD
:204C2000740E00203C040020454C00000146034A034813680B431360FFF746BD740E00202B
:204C40007406002070B50446FFF7B2F900B970BD04F120063046FFF7ABF9054694F845007D
:204C6000FCF78AF948B994F8443063B9002DEED13046FFF783F90D4B11E00128F6D194F808
:204C80004430002BF2D1002DE1D00025234630467E21074A84F84C50FFF728F9054B2246F9
:204CA0002846BDE870401978FFF7DCBC1B300020754B00001A3000202DE9F843FFF706FC34
:204CC000224B234D1870FFF701FC224B224C1870FFF7FCFB0023214A21496A602268AB60D5
:204CE00008704AB34FF0805801261E4FD8F8B431916C92F845009B6B41F08C0998472368DD
:204D0000494693F84500FCF7FBF82268D8F8B43192F8450006FA00F2C7F8E0201B6B98472A
:204D20002368A96893F8453054F8042F06FA03F30B43AB60002AD9D10B480021FFF7CEFB02
:204D4000BDE8F843024800F09DB900BF1A300020680E00201B3000203C0400202D4C0000E0
:204D600019300020002002407406002070B504880646672C1BD0792C33D05CB300233380C6
:204D8000032070BD00251E4C1E49236809785A1C22601D4A2846D554FFF764FC1B4B2A469F
:204DA00085211868FFF75EFC30B300232360184C134D06E00A28E5D00D28E3D02B687E2B3F
:204DC00015DD2046FFF7A0FD431CF3D167233380012070BDFFF77AFB0A4B094A187014602B
:204DE000E5E7852901D0012070BD054CDDE7064A591C2960D054E4E779233380012070BD2B
:204E0000F80E00201D300020780E00204C0E0020FC0E002010B5124C01462378A3B10A282A
:204E200006D00D2804D00F48FFF74EFC012010BD0D48FFF753FD0028F5D00023094823707F
:204E4000FFF742FC012010BD0748FFF747FD0028E9D1012303482370FFF736FC012010BDAD
:204E60001C30002084060020FC0E002008B5054905488022FFF72AFDBDE808400021034882
:204E8000FFF72CBB040F0020FC0E00208406002010B1837A012B01D901207047FDF776BC6C
:204EA00010B1837A012B01D901207047FDF718BD10B50446FDF75EFC38B10123E178044A7C
:204EC0008B40C2F8A030002010BD042010BD00BF0020024001460123C978034A8B4000209A
:204EE000C2F89030704700BF0020024010B584B08DF80F1018B1837A0446012B02D901208B
:204F000004B010BDFDF736FC50B1002301222046CDE900330DF10F01FDF738FD04B010BD9C
:204F2000032004B010BD00BFB8B170B5837A0446012B82B002D9012002B070BD0D46164651
:204F4000FDF718FC58B10023324629462046CDE90033FDF71BFD02B070BD01207047032001
:204F600002B070BDB8B170B5837A0446012B82B002D9012002B070BD0E461546FDF7FAFBAC
:204F800058B1002233462046114600950192FDF7FDFC02B070BD01207047032002B070BDE2
:204FA000C20709D5134B5A78DAB101221B78124902FA03F3C1F8A030830711D50D4BDA78E9
:204FC0003AB101229B780C4902FA03F3C1F8A030704701229B78084902FA03F3C1F8903037
:204FE000704701221B78044902FA03F3C1F89030E2E700BFB828010000200240C20709D51A
:20500000134B5A78DAB101221B78124902FA03F3C1F89030830711D50D4BDA783AB1012231
:205020009B780C4902FA03F3C1F89030704701229B78084902FA03F3C1F8A030704701220A
:205040001B78044902FA03F3C1F8A030E2E700BFB82801000020024038B54FF08055084CD5
:20506000D5F8B4312078DB6B9847D5F8B431A078DB6B9847BDE838400320FFF7BFBF00BF5F
:20508000B828010001460148FFF7A2BC840F002038B505460748FFF799FC48B10446A0683B
:2050A000284002D0636803B198472468002CF6D138BD00BF840F00200148FFF783BC00BF35
:2050C000840F002008B50448FFF7EAFCBDE808400248FFF7E5BC00BFA0060020940600202B
:2050E00038B50F48FFF7EEFC044680B10D48FFF7E9FC0546206060B100F018FB034605F1C3
:205100009C0105F18200A5F8803000F0CFFB204638BD21460248FFF7F1FC2C46F7E700BF75
:2051200094060020A006002010B5044607482146FFF702FD00B910BD21680548FFF7DEFC09
:205140002146BDE810400148FFF7D8BC94060020A006002010B5044609482146FFF7ECFCFB
:2051600000B910BD2468B4F88010204600F0A8FA04F19C0104F18200BDE8104000F0A8BB98
:205180009406002010B5044603482146FFF7D4FC00B1206810BD00BF940600200368B3F839
:2051A0008000704738B503460F4D1048002B18BF1D46FFF70BFC58B104462846211D00F07D
:2051C000F9FB40B92046FFF767FC04460028F4D14FF0FF3038BD064A064B9068201A801026
:2051E00003FB00F038BD00BFE03A010048150020AC060020ABAAAAAA2DE9F0411648FFF75F
:20520000E5FB804620B30024144F154E154D08E020460CF03DFA04464046FFF73DFC804683
:2052200098B1B368A8EB03039B1005FB03F3FB5C002BF1D108F10401002CE9D140460C46D0
:20524000FFF72AFC80460028EBD12046BDE8F08104462046BDE8F08148150020381500205C
:20526000AC060020ABAAAAAA2DE9F04705460F46214CDFF888A0DFF88890DFF8888004F197
:20528000200654F8041FB9B18A68AAB1A5B1D9F80830EB1A4FEAA30C0C3308FB0CFC0BD051
:2052A0004868CB6800FB0C3030B109681AF80C300B41DB0700D59047B442E2D1C5B1104BE0
:2052C000104A9B68EB1A9B1002FB03F300220E490E48CA5429460AF80320FFF7C5FB0FB9CF
:2052E000BDE8F0872946BDE8F0470548FFF706BC4FF0FF33EAE700BF1415002020160020A2
:20530000AC060020ABAAAAAA3815002048150020034638B10268072A04D80C4850F82220A1
:20532000934210D00A480268072A0AD810B499600649541C1A60046041F82230012010BC17
:20534000704700207047012099607047181500201C160020F8B506460846174F174C184DDA
:205360002EB358B1F3687168C01A90FBF1F1481C1BD0B86801EB410100EB8100FFF78CFB42
:2053800088B1BB68C31A9B1004FB03F35A1C0AD07168F06801FB030028B1EB5C32681341A6
:2053A000DB07DDD5F8BD0020F8BD0020E6E73046FFF772FB3046F8BDAC060020ABAAAAAA63
:2053C0002016002010B504461048FFF7FFFAB8B10F4B9968411A94B111F10C0F0FD00D4B69
:2053E000891001FB03F36068E16800FB031038B109492268CB5C1341DB0701D510BD00201E
:2054000001462046BDE81040FFF7A4BF48150020AC060020ABAAAAAA201600202DE9F041FC
:20542000002844D00D46424B0446002908BF1D462846FFF7B7FE431C2AD06268E36802FB2F
:2054400000332BB33B4B22681B5C1341DF071FD500272846FFF7A6FE461C2CD06268E668E1
:20546000002100FB026630460CF036FFFEB1E3686268F31A93FBF2F35A1C06D001222D49D8
:205480002468C85CA2400243CA543046BDE8F0812846FFF787FE0130DAD12748FFF75AFB0C
:2054A0000028D5DCFFF7A8FE07460028D1D100263046BDE8F081DFF880804046FFF702FB5E
:2054C0000646B0B131461D48FFF782FAD8F808302946301DF51A00F069FA15F10C0F21D198
:2054E00000210E46084662680CF0F6FE3046BDE8F081002FDBD03846FFF754FE411C0CD0CA
:20550000D8F8086000EB400006EB800600213046FFF7AAFE002ED5D1C9E731463046FFF715
:20552000A3FEB2E7064EA81006FB00F096E700BFE03A010020160020AC0600204815002038
:20554000ABAAAAAA10B504460846FFF72BFE84B1431C02460DD06068E36800FB023038B144
:20556000054B21689B5C0B4113F0010F08BF002010BD002010BD00BF2016002030B319B397
:20558000C3684268CB1A93FBF2F35A1C1CD010B54FF0010E0F4CD0F800C0E25C0EFA0CFC38
:2055A00022EA0C02E254C2684368891A91FBF3F14B1C0CD0084C0268635C0EFA02F223EAEA
:2055C00002036354704610BD002070477047704610BD00BF2016002038150020A8B191B15E
:2055E000C2684368891A91FBF3F14B1C0BD0012310B4064C0268605C03FA02F20243625435
:20560000184610BC704700207047704738150020B0B199B1C2684368891A91FBF3F14B1CB4
:205620000CD0012310B4074C0068625C03FA00F022EA00026254184610BC704700207047C4
:20564000704700BF3815002088B179B1C2684368881A90FBF3F0431C08D0054B00EB40006D
:20566000996811EB800002D00430704700207047AC060020002138B50B4A0C480C4B0D4DDF
:205680000D4C017011800D481A2219800CF024FE2046294600F08AF9294604F10800BDE80E
:2056A000384000F083B900BFFE2F00201E300020FC2F0020E03A010030160020C01600200A
:2056C0002DE9F0410C460021114A124B124EDFF84C80134F0546117012481A221980318047
:2056E0000CF0FAFD3846414600F060F9414607F1080000F05BF9802C28BF80242946224690
:2057000009480CF0F7FC20463480BDE8F08100BF1E300020FE2F0020FC2F0020E03A010039
:2057200030160020C016002040160020F8B50E4E0E4D32782B881344802B01DD0020F8BD21
:2057400004460B4F39460CF0D5FC0A4A33781188E0180B44DBB2F9182A880CF0CBFC3078BF
:205760002B881844F8BD00BF1E300020FC2F002040160020FE2F002010B5144B144C1B8803
:2057800094F800C0134A63441288DBB213449BB21A18802A17DC013B1BB2002B0EDB0E4AAA
:2057A000591C03EB000E11447244013B11F801ED1BB2B3F1FF3F02F801E9F6D1844484F89C
:2057C00000C0012010BD002010BD00BFFE2F00201E300020FC2F00204016002008490A8810
:2057E00082420ADB10B4074C80B22388121A03440A800120238010BC70470020704700BF32
:20580000FC2F0020FE2F0020014B1880704700BFFC2F0020044A054B12881B7804481344DD
:20582000DBB21844704700BFFE2F00201E300020401600200048704740160020014B188877
:20584000704700BFFC2F0020034A044B10781B881844C0B2704700BF1E300020FE2F0020C1
:20586000054B064A18781288054B10441B88C0B2184480B2704700BF1E300020FE2F0020E6
:20588000FC2F0020064A074B074912881B7808881344DBB2C0F18000C01A80B2704700BF77
:2058A000FE2F00201E300020FC2F002010B50C461A2205490CF01EFC2046BDE8104010229E
:2058C00002490CF017BC00BFC01600203016002010B50C461A22014604480CF00BFC214643
:2058E000BDE81040102202480CF004BCC0160020301600200246024B012023F81210704775
:20590000C0160020014B33F810007047C016002008B5044B0D3803EBC00000F047F801200E
:2059200008BD00BF30160020024B0D3803EBC000704700BF301600200149024800F03AB8EB
:20594000E03A01003816002070B505460D480E46FFF73CF868B10446012D0CD01DB963686D
:205960000BB1984730B92046FFF796F804460028F2D1002070BDA368002BF4D030469847E8
:20598000F0E700BFDC160020054B10B51B689847044B5B689847BDE81040034B5B68184792
:2059A00038290100DC4001006C49010008220CF0A1BB00BF082208B50CF068FBB0FA80F011
:2059C000400908BD10B50948FEF7B6FA0848FFF7F9FC48B1064C037A01465B080372204676
:2059E000FFF7B8FC0028F6D110BD00BFA8170020B806002001460148FFF7A4BDB806002000
:205A000080B110B50446FAF741FD2368C01AB0F5963F05D2207A032894BF0020012010BD3B
:205A2000002010BD0020704770B50546144689B1022907D006290CD1BDE870400146354877
:205A4000FFF780BD01463348FFF77CFD064600282ED170BD01462F48FFF774FD06460028A9
:205A600031D0FAF713FD337A30602344102BA8BF10233372FAF70AFD3368E401C01AB0F50F
:205A8000963FA4B211D2337A042B35BF19230A234B215A2103FB04F4B2881F4B01FB0244FC
:205AA000A3FB04346409B48070BD19234B21F1E7FAF7ECFC337A30602344102BA8BF102370
:205AC0000C343372D6E73346082229461148FFF7A5FC06460028BCD0B0F90630B3B16FF080
:205AE0003B0083426FF05801A8BF03468B42B8BF0B464FF470625A331BB2B2FBF3F3B3F5FF
:205B0000C07F28BF4FF4C073B380AAE74FF48073FAE700BFB80600201F85EB5138B5054659
:205B20000420FFF7EFFE044629461C4824B2FFF709FD78B15A21B0F9062004EB8404640021
:205B400001FB0244164B83FB0423E417C4EB6314C48038BD0346082229461048FFF75EFC19
:205B60000028F6D0C480B4B16FF03B03A3426FF05801A8BF23468B42B8BF0B464FF47062DA
:205B80005A331BB2B2FBF3F3B3F5C07F28BF4FF4C073838038BD4FF48073FAE7B8060020E7
:205BA0001F85EB5138B50948FFF70CFC60B10446064D21462846FFF7E1FC21462846FFF7A8
:205BC000C9FB04460028F4D138BD00BFB806002010B500210548FFF79BFBBDE81040002361
:205BE0004FF4E131024A0348FEF780B9B8060020C5590000A8170020F8B5FAF747FC104E71
:205C00000025344607460D20FFF78EFE2146FFF7D1FE103420B90135102DF4D10020F8BD93
:205C20000720FFF76FFE06EB05152B7B8342F5D1A868381AB0F5206F8CBF00200120F8BDC7
:205C4000C817002070B5174E002435460D20FFF76BFE2946FFF7AEFE1035F8B90134102C18
:205C6000F4D10F2406EB04152846103D013C102229460CF03FFA002CF6D10720FFF742FE04
:205C80003073FAF703FC03460D20B360FFF74CFEBDE8704001460348FFF788BE002CE1D1A7
:205CA000EBE700BFC817002000B5864630B1084611461A4673465DF804EB18475DF804FB3D
:205CC000032917DDB2B100B5034611889078C1F30B0208B142F400424FF0020C0F214FEAFA
:205CE000122E9A7083F803E083F800C0597004205DF804FB4FF0FF30704700BF0129034629
:205D000006DD2AB100213F22022019705A7070474FF0FF30704700BF012984460CDD5AB14B
:205D200093880220C3F30A0343F408431A0A8CF800308CF8012070474FF0FF30704700BFC9
:205D400007291ADDCAB100B503464FF0060E4FF01A0C916881709168090AC1705189017178
:205D6000D17A4171117B8171127C83F800E0DA7183F801C008205DF804FB4FF0FF30704797
:205D8000002A47D070B592F82E4092F82A3004EB840505F1040C03FB0CFC012B86460CF148
:205DA000010034DC042C32DC0CF102068E422EDA012B8EF8023007D01B238EF800008EF8B2
:205DC00001300CF1030070BD92F82B308EF80330938D8EF80430938D8EF806401B0A8EF856
:205DE0000530002CE8D073467544118E05339970118E0632090AD970918D1971918D090A2C
:205E0000597192F82E109971AB42EED1D4E74FF0FF3070BD4FF0FF30704700BF42B300B556
:205E2000537C864663B902291FDD012203208EF802301C238EF800208EF801305DF804FB96
:205E40001A2912DD0146837002F1280C02F1100333F8022F02314A701A889C454FEA122270
:205E60008A70F5D119221B20E3E74FF0FF30E5E74FF0FF30704700BFDAB3F8B5B2F84A30A6
:205E80001546022B32D892F84820044642BB0223012799422ADD0026A270E670267166710C
:205EA000A671E67126726672B5F84A3005F14C01A372B5F84A3004F10C001B0AE372B5F836
:205EC0004A200CF017F9C822B5F84A30B81C23441E73B5F84A3023445E7327706270F8BDF2
:205EE00003F10C070D33BFB29BB2D2E74FF0FF30F8BD4FF0FF307047002A00F0C6812DE925
:205F0000F84F00231646D370002900F0438101297DD00788054604460439AB48FA0BC9B250
:205F20008B1CDBB204F1020C002A40F05D81C7F3C7127E2A07F07F076DD07F2A1FD0BB4268
:205F4000C0F071811E2A40F06E81022F40F06B8163880434DA0B1F05B2701AB246BF034386
:205F60001BB2C2F30B033380002900F00B8101294DD0BCF802700439C9B2FA0BD0E7002F29
:205F800040F07281ACEB0500F070BDE8F88FC2F30A094C45C2F3C32267D3092A65D1B9F176
:205FA000000F62D09A78B9F1010F86F848207CD05A89022AA6F84A2005D802F10C0189B273
:205FC000894500F0EA8009F10203FF1A002FC0F21A81A4EB09040AEB090368D114F0FF0428
:205FE00054D0012C13D033F8027B023CE1B2FA0B002A00F0D880C7F3C322012AC7F30A07E8
:206000001AD00F2A40D0714B1B68002B41DC4FF0FF30BDE8F88F002F40F01581ACEB05009B
:20602000F070002BB1D0012BF1D0634633F8027B06F14C08FA0BDBE741B30129E7D09A464F
:206040003AF8022B0239CCB206F1280BD10B00299DD15FFA82F94C45C2F3062205D31B2A2C
:206060005ED01C2A46D01A2A2DD0584B1B68002BCDDD574A5749584802F00EF9574802F0EF
:206080000BF94FF0FF3080E7002FC0D1581BBDE8F88F4F4A4F49504802F0FEF8504802F08D
:2060A000FBF84FF0FF30BDE8F88F03238DE714F0FF04EBD0012CAAD09A463AF8022B023CD3
:2060C000E4B2D10BC3E7B9F1060FCED19A78B260D97842EA0122B260197942EA0142B2605D
:2060E000597942EA0162B2609A793273DB79337408236AE7B9F1010F48D0B9F1190FB4D1D5
:206100009B780AF10102737406F1100332F8021B23F8021F5B45F9D11B234FF0190954E7B6
:20612000B9F1000FA1D0987800283FF44CAF01289BD19A79042A98DC511C01EB81018945DC
:2061400093D186F82A00D97886F82B109988B1859B7986F82E30002A3FF435AF334602EB3B
:20616000420206EB42010AF1050210880633588550880532988512F8010C83F82E008B423E
:20618000F3D120E7601BC1B2F170FEE69B78737403231AE70846F170F7E6404603F10C01CD
:2061A0000BF0A8FF0FE7094B1B68002B7FF72FAF074A0849084802F06FF83946094802F0E4
:2061C0006BF84FF0FF30E0E600F0FFFF4C060020E83A0100643A010070280100A83B010089
:2061E0008C3B01006C3B0100294B1B68002B7FF70EAF284A2849294802F04EF8394628485F
:2062000002F04AF803E7224B1B68002B7FF7FFAE204A2149214802F03FF8224802F03CF82C
:206220004FF0FF30B1E61A4B1B68002B7FF7EFAE184A1949194802F02FF81B4802F02CF87C
:206240004FF0FF30A1E6124B1B68002B7FF7DFAE104A1149114802F01FF83946134802F059
:206260001BF84FF0FF3090E6094B1B68002B7FF7CEAE084A0849094802F00EF839460C4874
:2062800002F00AF84FF0FF307FE64FF0FF3070474C060020E83A0100643A01007028010045
:2062A000F43A0100BC3B0100583B0100103B0100343B010030B591B0FFF7ACFA0446FFF765
:2062C000BDFA6A460146204600F040FB00283ED00446FFF783FAD0B39DF810100C20FFF732
:2062E00009FB08209DF81310FFF704FB9DF817308BB1BDF81C5000F00FF9854205D04FF6B3
:20630000FF73BDF81C209A4221D169469DF8170000F0E0F9B0B10D2002A9FFF7F9FA9DF871
:2063200015303BB14FF6FF710720FFF7E3FA204611B030BD9DF81A100720FFF7DBFA204652
:2063400011B030BD69460E20FFF7E2FAE3E74FF0FF34ECE72DE9F04105460C2014460E4665
:20636000A84700232074A374002E38D00122E37462750920A847002703464FF00208A375F0
:20638000072084F818806774A847A07600F0C4F8E0830A20A84701280CBF3B460323637646
:2063A00000F0BAF8A0830B20A84701281CD06EB90323E375637E022B0DD0E37DA3F1020360
:2063C000B3FA83F35B092375BDE8F081637E84F81780022BF1D101232375BDE8F0810820AB
:2063E000A8476675E074C4E7E775E3E730B591B0044600F091F84FF6FF7398426BD0402297
:20640000002168460BF068FF344B1A7832B36CBBFFF792FA01466A463148C9B2FFF79AFF32
:20642000FFF78AFA00283DD04FF6FF73ADF800300D20FFF779FA014602A8FFF7B7FAFFF7FD
:20644000E9F90E90FFF7FAF9034668460F9300F09FF90546D4B9284611B030BD01221A7011
:20646000FCF75CF81F4B1870002CD1D00720FFF749FA0028CCD11B4D2978D9B189B20720FC
:20648000FFF738FA2B7801332B70C1E7FFF774F9A0B1FFF7CFF90146684600F0C9F9284633
:2064A00011B030BD0E20FFF73FFA01466846FFF77DFABDE7012319462B70E0E70A4B1B680E
:2064C000002B08DD09490A4A0A4801F0E5FE2946094801F0E1FE4FF0FF35BCE71F300020CB
:2064E00005590000203000204C060020643A0100E83A010070280100EC3B01000120FFF7C2
:2065000075BF00BF0020FFF771BF00BF10B10AB1FFF720BF704700BF014B1888704700BF5A
:2065200020080020014B1880704700BF2008002000283ED0037A30B4022B10D00378022B25
:2065400015D00379B3B10024C37913F0030318BF012301B10C6002B1136030BC7047C579ED
:20656000447A037965B90CB9012BF2D0DBB100231C46EEE7447A14F0030418BF0124E3E79B
:20658000C4B1032D37D1032C2ED0022C24D143BB022D2DD00123032D24D1A4F10204B4FA42
:2065A00084F46409D5E7023C012C8CBF00240124CFE770474BB9022D08BF0123EAD1A4F160
:2065C0000304B4FA84F46409C3E7032D01D0022D02D123461C46BCE7002BC8D1022DDAD168
:2065E000EDE701230024B4E7002BC0D10123D4E701231C46ADE7022DC7D1002BF1D1022C4D
:206600004FF00103DBD11C46A3E700BF30B50D46044600210622284683B00BF05DFE637D3E
:20662000D9075CBF01232B70237E012B23D9694601AA04F11000FFF77BFF009B0BB102238C
:20664000EB70019B0BB102236B70E37D03F00303022B03D0032B14BF00230823AB70637EE3
:2066600003F00303022B03D0032B14BF002308232B7103B030BDE37D9A0706D0637E9B073C
:2066800003D0E28BA38B9A4202D000232375CEE701232375CBE700BF002110B582B0019197
:2066A00078B1044601AA1030FFF742FF019B43B1074AA38B12889A4206D04FF6FF7293425F
:2066C00002D0002002B010BD012002B010BD00BF2008002002280CBF012307230B441A787E
:2066E0001846FF2A03F1FF3303D18142F7D1012070470020704700BF38B50446002837D0BA
:20670000637E0846154683B1022B0BBF0123072302220822093304F10801234413F801CDAE
:20672000BCF1FF0F22D18B42F8D110B11749FFF73DF9E37D73B1022B15BF072301230822CB
:206740000222234419789C46FF2903F1FF3308D16445F7D145B128460C49FFF727F90120B3
:2067600038BD082A04D155B9012038BD082A01D0002038BD0028DCD0FFF718F9D9E72846D8
:206780002146FFF713F9012038BD00BFE03A010000B583B06946FFF739FF9DF800309DF881
:2067A00001209DF8020002339DF80310134403449DF804209DF805000B441344184403B09E
:2067C0005DF804FB4378827890F800C0DB00120102F0100203F0080313430CF0070290F895
:2067E00003C0134302794FEA4C1C0CF0200C920143EA0C0302F0400213430B7043798279B1
:2068000090F809C003F00103520043EA8C1302F0020290F807C01343027A4FEA8C0000F046
:206820000C001201034302F0300213434B70704730B50C46054683B06946FFF7E7FE214661
:2068400005F11000FFF7BEFF9DF80030012B02BFAB7E0322A3709DF8013018BF0222022B7E
:2068600008D1A98B531CA154A98BDBB20232090AD2B2E1549DF802306BB303F1FF3E134479
:20688000AE44DBB2944601321EF80119D2B29A4204F80C10F6D19DF80320022A08D1E98BCC
:2068A0005A1CE154E98BD2B20233090ADBB2A1549DF8040088B100F1070C1844AC44C0B2D7
:2068C0001A4601331CF801E9DBB2984204F802E0F6D103B030BD1346DDE7184603B030BD5F
:2068E000034600B593F800C085B00CF0070E8DF804E0CCF3C00E5B788DF805E0CCF3001EF9
:206900008DF806E0CCF3401ECCF3801C8DF808C003F0010C8DF809C0C3F3400C8DF80AC0A8
