:020000040000FA
:2000000000500020E9000000E1000000C9000000E5000000E5000000E5000000000000002E
:20002000000000000000000000000000E5000000E500000000000000E5000000E50000002C
:20004000490F0000E500000071180000E50000001D060000E50B0000E5000000E500000018
:20006000E5000000C5180000E5000000E5000000E5000000E5000000E5000000E500000060
:20008000E5000000E5000000E5000000E5000000E5000000E5000000E5000000E500000038
:2000A000E5000000E5000000E5000000E5000000E5000000E5000000E5000000E500000018
:2000C000E5000000F1260000044B1A68B2F5806F03D01B689B0500D4FEE7704728ED00E062
:2000E000FEE700BFFEE700BF08B507F0C5F8104A10498A420DD2104801390346891A21F05A
:2001000003010431014453F8040B8B4242F8040BF9D10A480A494FF000028842B8BF40F8C8
:20012000042BFADB03F094FDFFF7CEFF08BD00BF000000201408002085710100180800205D
:2001400091310020F0B5002706463C463D4683B0304604F041FF0195019B9C4206DD00BF11
:20016000019B01330193019BA342F8DB304604F05FFF0195019BC4F5C8749C4206DD00BF58
:20018000019B01330193019BA342F8DB0137B7F5487F06D0B7F5C87FD4BF3C46C7F54874A6
:2001A000D6E703B0F0BD00BF38B5194D194C2B68204601215B68984701222B6811461B685E
:2001C0002046984707F0B2FB00F014FF00F096FE00F0C0F804F072FF04F0CEFE0120FFF7CB
:2001E000B1FF01230C490D4A0D480968136003600B691020A2F5FF521268984707F09AFB72
:2002000000F07EF9BDE838400020FFF79BBF00BFD801001000400340B00100100C40094069
:200220000800094008B541F2342002F077F900F053FC04F00BFE074800F082FC0648082157
:2002400000F008FB04F028FDBDE808400220FFF779BF00BFF54D0000AC290020002370B517
:2002600084B0082102A8294CCDE9003300F0F2FA9DF80E309DF80F60E56A46EA032648F284
:20028000A5110220A84731460320A8471A210120A847636B082202A90B201D4D98476946FD
:2002A0000120A46AA0472B68022B1ADC022001A9A04758B92B68022B04DC0020FFF742FFB7
:2002C00004B070BD0199134808F0F0F82B68022BF3DD114808F0EAF80020FFF733FF04B0A9
:2002E00070BD0E4A0E490F4808F0E0F80E4808F0DDF82B68022BD9DD084A0949094808F075
:20030000D5F80099094808F0D1F8CFE7283901004806002098380100C85B01004838010069
:200320005838010060380100703801008838010000F08CBC10B5064C042023685B69984788
:20034000236804205B6B98470128F9D110BD00BFB8010010F0B593B007F0E8FA0746FFF7FD
:20036000E9FF194B4FF4A0601B68DB6998470121164B174A196013689907FCD5002006F0E9
:200380006FFC144800F0AEFD48226846124912F08DFE009C621C0FD06D46104E33682046F0
:2003A0009B6B9847336820469B694FF40051984755F8044F631CF1D10FB113B0F0BD13B00C
:2003C000BDE8F04007F0B6BAB8010010282008602820084028040020AC380100B4010010E2
:2003E00010B5064C042023685B699847236804205B6B98470128F9D110BD00BFB8010010F8
:200400000020002170B51B4A1B4BC2E900011B6804205B6B9847012801D0FFF7E1FF164B82
:2004200000201B68DB6998470121144B144A196013689B07FCD5134A13491368096823F4F4
:200440008073124C23F0010313600B682046104998470423312640F22120012223600D4DBF
:200460000D4903F1864303F510132E6008601A6070BD00BF18080020B80100102820086039
:20048000282008400C000140C801001000000140002100043C0001400800014008B507F0C6
:2004A00077FA0023400E40EAC1120349C1E90023D1E9000108BD00BF1808002008B507F011
:2004C00067FA0023400E40EAC1120549C1E9002303F032FF00B908BDBDE8084003F00CBFE5
:2004E00018080020014B1868704700BF08200940704700BF0146012000F052B807F036BA4A
:200500002DE9F04107F012FA0124002605464FF480314FF480701A4F1A4BDFF880803A688D
:20052000C8F800601C601860196013683046232198473B68204624211B6898473B68252181
:2005400002201B689847104A1049136843F4E02313600E6007F00AFA0D4B0E490E4A1B6849
:2005600000F5007008601460C8F8004014201B6998470DB1BDE8F081BDE8F04107F0DAB96F
:2005800084010010042009400020094008200940B00100101C200940A002244300002443C9
:2005A000431E012B10B416D9042812D100231A4610F004001CBF104C216013B101210F4B6D
:2005C000196012B101220E4B1A6010B101220D4B1A6010BC7047012808D103460A4A1160A0
:2005E00010F0020204D0094C2160E1E70023F7E7002BEED01046E1E720200940800224430B
:20060000A0022443C0022443182009401C200940014B1868704700BF4008002008B5FFF745
:200620006DFF184B1860FFF749FF174B1B686BB9164B1B68E3B9164B1B6833B100204FF481
:2006400080321449144B08601A6008BD4FF48072114B1A6007F08AF900F205200F4B20F47B
:20066000FF7020F001001860084B1B68002BE2D0002001220A49084B08601A6003F0D2FE41
:20068000D9E700BF40080020A000244380002443C0002443C0022443042009401C20094043
:2006A000800224430122014B1A607047000C084038B507F03BF9114AB0FA80F01368012B29
:2006C0000AD001230E4C0F4D0F49104A400925600B60136068B938BD0D4C0949094D14607D
:2006E0000D60094C0949400923600B6013600028F1D0BDE8384007F01DB900BF000C084056
:2007000000000840502D1900040100430001004351E5CC1A0122014B1A6070470C0008405F
:2007200008B5FFF7C5FFFEE708B5064804F0FEF830B10121044B054A196013689B06FCD561
:2007400008BD00BF44080020000222431410094070B5044607F0EAF80B4D214606460B482F
:2007600004F0E6F8FFF7E0FF2B6860681B6898472B6860689B6898471128F9D106B170BDF1
:20078000BDE8704007F0D6B8A00100104408002038B598B10022134913480B68134D144C20
:2007A000006823F4C0530B602A602260C36801209847104A13689B06FCD438BD04460E482A
:2007C00004F0B4F80028E5D005C814430028FBD1002CDFD0034A136823F4C05343F400631D
:2007E000136038BD04100940A00100108001224300022243141009404408002038B5054625
:2008000007F094F804462946054804F0DDF80020FFF7BEFF04B138BDBDE8384007F08AB8B3
:200820004408002070B590B10E460024451E04E0A64206D000F064F9013415F8010F0028A2
:20084000F6D100F0B3F90128FBD0204670BD0446F7E700BF10B40C4B0C4C1A780133FF2A65
:200860000FD1A342F9D10A4C49B10139631801381978A34200F8011F03F1FF33F8D110BC62
:200880007047014CF0E700BFC8FF0100D0FF0100F012005038B50C4D02202B685B69984736
:2008A0002B6802205B6B984701280446F8D12B684FF40070DB699847044B054A1C601368A4
:2008C0009B07FCD538BD00BFB801001028200860282008402DE9F04340F2F275DFF8DC80D3
:2008E00083B0FFF7D7FFD8F800302A4EDB682A4898473368294C15205B6998472368DFF8A3
:20090000C090274F23F4FE63D9F8002023F0020323603D60D36B032098470820122221496A
:20092000D9F800300860009202210322D3F8409019481323C847D8F800206023D2F8048072
:2009400019494FF4E1321448C047142140F2011340F2013C154A164811600268154942F06A
:20096000100202600868144A002818BF634613603D600B6853B115202368326843F0500326
:200980002360136903B0BDE8F043184703B0BDE8F08300BFB001001000100040381000404B
:2009A0004410004090200240006CDC02341000402C1000404808002030100040D001001096
:2009C000B401001038B5394B04461B6802205B6B9847012807D1364B1B68D80703D5354A12
:2009E00013681907FCD4032C2BD0334B1B6803B138BD2E4D02202B685B6B984701284ED19B
:200A00002B4B1B68DA0734D4284B4FF400701B681B6A9847032C20D00121284B284A196048
:200A200013689B07FCD5032000F078FA022000F075FA132000F072FABDE83840122000F0F4
:200A40006DBA1A4D02202B685B6B98470128D7D02B684FF400701B6A9847144C4FF4007021
:200A600023689B6A984723684FF400701B6B9847D2E7144B14481B68DB689847134B1520B8
:200A80001B685B69984740F2F270114A1149136823F4FE6323F0020313600860B4E72B68D3
:200AA0004FF400701B6A9847B6E700BFB80100106C2008401810004048080020282008609E
:200AC00028200840D001001000100040B0010010381000404410004010B506F027FF04464D
:200AE000054800F0FFF90022044B1A6004B110BDBDE8104006F01EBFE80400204808002010
:200B000010B50B4B04461B6802205B6B9847012803D1084B1B68DB0701D4FFF7DBFE064B7C
:200B20002146BDE810401B680448DB69184700BFB80100106C200840D0010010001000405A
:200B4000154B10B51860C0B10221144C144A236811614FF400705B6A984723684FF4007014
:200B6000DB6A984701210F4B0F4A196013689B07FCD5BDE81040FFF7ADBE084C084A23688E
:200B800010619B6A4FF40070984723684FF400701B6B9847E6E700BF48080020B8010010E5
:200BA000E8040020282008602820084008B50B4B02201B685B6B984701280CD1084B1868B3
:200BC00010F0010006D0A3F5012353F8540C543BC0F3C00008BD002008BD00BFB8010010A3
:200BE0006C20084070B5FFF755FE40F2F2710C4B0C4A1B68116013F0500F0DD00A4C0B4E8F
:200C00000B4D06E0336828461B699847094B1B681BB92368DB06F5D570BDC0B29847EFE7F5
:200C2000401000404410004018100040D00100100010004048080020034A136823F00403A5
:200C4000136030BFFFF766BD10ED00E02DE9F84306F06CFE03F01EFD18B1BDE8F84306F0DE
:200C600069BE914803F062FE0225044648B1636823B19847A84228BF2846C5B22468002CCB
:200C8000F5D1FFF73BFC894B04461E68002E00F0E380874B1E68331A022B00F19A80A3F2CA
:200CA0008F23002B4FF0010880F2D9804046854228BF054603F040FB002840F09280012DFF
:200CC00000F0DB8007468146022DC6D1B8F1000F40F0B780002F40F0D6800220611EFFF784
:200CE0005FFC714803F022FE06250446002800F0B880A3680BB1022098472369246825EA19
:200D00000305002CF5D1FFF705FD6B0700F1AC80002D40F0AC8000F0CDF90020FFF738FDC8
:200D20006449654A0B68654823F003030B601368016843F00F0313608B69392098470020CB
:200D40005F4B604A18601860106006F007FC062D00F0A5805C4C5D4D5D4E2B6823683268E9
:200D600023F003032360536803215A489847534B1B689B6B98472B6806F014FD0021564A16
:200D800033681160534801215B68984701212368524A43F00303236011602B6806F034FDB8
:200DA000FFF7C2FCFFF78AFBFFF7B4FC3E4803F0BDFD044628B1E36803B198472468002C72
:200DC000F9D100F045F906F0B5FDBDE8F84306F0B1BD03F0B1FA00283FF43FAF4FF0010800
:200DE000002503F0B1FA0746FFF758FB3F1A002F7FF733AFFFF70CFC00EB4729A9EB0403C6
:200E0000A3F28F22002A46DA002D3FF426AF082B3ED404F58034A4EB090339EA230928BF4A
:200E2000A14649460220FFF7BBFB2D4A136823F00403136030BFFFF76DFCBDE8F84306F0CB
:200E400079BDA6F141011FB1A1EB0903002B1ADA0420FFF7A5FB3DE7B046022027E70220D6
:200E600025E7FFF757FC062500221C4B1A60134B28461B689B6998474DE7022004F58031BD
:200E8000FFF78EFBD1E749460220FFF789FB28E704F10809C5E7012DB9D0012714E7022033
:200EA00006F02CFD56E700BF4C08002080022443182009400010094008100940B8010010B6
:200EC0004010094020042243242208402C200940D801001000400340800104430C40094004
:200EE00010ED00E00146014803F022BD4C0800200146014803F068BD4C08002010B5054811
:200F000003F010FDBDE81040034B20211B6803201B6818474C08002084010010431C0ED07F
:200F200010B5074B04461B684FF4C0421B68002198470023034840EA8404236010BD7047DE
:200F4000B4010010001A4442024B1868186004F0A1B800BFE020024070B51B4B0C461B6839
:200F600005465B68984714F00C0320F0E06222F4EC2207D0042B21D0082B22D00C2B08BFE1
:200F800042F4403214F003030ED142F4C04223060D4B2846BDE870401B684FF000011B68FE
:200FA00048BF42F480221847022B04D0012B08BF42F48042EBE742F40052E8E742F4003276
:200FC000E0E742F48032DDE7B4010010064B1B68C340DB074CBF054B054B1B6823FA00F0E5
:200FE00000F00100704700BFD020024080200240C02002400022412300B585B002A8CDE984
:201000000223FFF7A5FB042006F068FC032805D102A8FFF7F3FB05B05DF804FB03210420B7
:2010200006F030FC042006F059FC0328FAD11C234FF0405200210090044806F047FA02A83B
:20104000FFF7DCFB05B05DF804FB00BF00A00C400022412300B583B06846CDE90023FFF724
:2010600077FB012006F03AFC012803D00121032006F008FC6846FFF7C1FB03B05DF804FB0F
:201080000022412300B583B06846CDE90023FFF75FFB012006F022FC012803D0044B986B88
:2010A00006F058F96846FFF7A9FB03B05DF804FB4800001010B54123002482B06846CDE95F
:2010C0000043FFF745FB0320214606F0DBFB012006F004FC20B96846FFF790FB02B010BDA3
:2010E000044B986B06F036F96846FFF787FB02B010BD00BF4800001070B5038804463BB1D7
:2011000040F2CB22934208D182290AD0012070BD40F2CB232380012070BD00232380032035
:2011200070BD094B094E1D69FFF7F4FA04F07AFB04F012FB8021A847002880B2E8DD04F060
:2011400005FBF3689847EFE728390100C4590100024B186800F00100704700BF9C210840C6
:20116000F8B54FF0FF332B4C0E462360236807460B6010F0030302D1028811050BD406F072
:20118000D5FB254B05461B68DB0717D4002D31D000252846F8BD438006F0C8FB1E4B0546CE
:2011A0001B68DA07F2D53B8813F4405F06D003F44063B3F5006F04BF184B1F60184B1948AB
:2011C0001F60036823604CF2503303E00268013B226016D0226812F0FF0FF7D075B12368DE
:2011E00033602568EDB2A5F10105B5FA85F56D092846F8BD06F09EFB2846F8BD06F09AFB95
:20120000EDE71DB1236800253360C2E706F092FBF8E700BF7C2900209C21084050080020DD
:2012200000100440041004400B4A01E0013A11D0438803F44063B3F5806FF7D14388074AD0
:201240009BB21360428802F44062A2F58062B2FA82F252091046704720A107007C290020DE
:2012600030B583B006F062FB254C0546236819201B6A9847236812201B6A9847236819203A
:201280005B699847236812205B6908349847236801205B699847236801205B6B9847012846
:2012A000F9D11849184B194A0860186013689B07FCD50023124C16481649226803600B60D9
:2012C000192013699847236812201B699847A5B140F2FF350024104B104A114911480D60A5
:2012E000046001A91A601048FFF73AFFA0F10100B0FA80F0400903B030BD06F01BFBE7E770
:20130000B00100102C2008402820086028200840101004601410046000100440510007067A
:20132000000004601C1004400100060410B586B01422002101A811F099FF012140F60A02D6
:2013400017489DF81130046861F3030301A869468DF811300594ADF80420FFF701FF0128F3
:201360001AD1104801E0013814D0BDF8063003F44063B3F5806FF6D1BDF806300A4A9BB2BD
:201380001360BDF8060000F44060A0F58060B0FA80F0400906B010BD002006B010BD00BFCE
:2013A0006008002020A107007C29002000B587B01422002101A811F059FF012140F6090270
:2013C0009DF8113001A861F3030369468DF81130ADF80420FFF7C4FE012803D0C0B207B019
:2013E0005DF804FB134A01E0013A1ED0BDF8063003F44063B3F5806FF6D1BDF806300E4A0C
:201400009BB21360BDF8063003F44063B3F5806F0BD10A4B01201A78002AE0D1084A059941
:201420001870116007B05DF804FB002007B05DF804FB00BF20A107007C2900205A2900208E
:201440006008002030B587B006F070FA344C0546236819205B699847236812205B699847F6
:20146000304B1B68DA072AD4FFF7A0FF002401212D482E4B2E4A0460196013689B07FCD583
:201480002C4C012023689B699847236801205B6B98470228F9D1224C192023681B6A98476A
:2014A000236812201B6A9847236819201B699847236812201B69984775B307B030BD0021D7
:2014C0001D4B1E4A02A811601960102211F0CEFE012140F60D029DF8153002A861F3030364
:2014E00001A98DF81530ADF80820FFF739FE0128BAD1134A01E0013AB6D0BDF80A3003F4E5
:201500004063B3F5806FF6D1BDF80A300D4A9BB21360BDF80A30A7E706F00CFA07B030BDA7
:20152000B00100109C2108402C2008402820086028200840B801001014100460101004603C
:2015400020A107007C29002008B505F03DFF052803460CD0032805D068B903220A4B012002
:201560001A6008BD0222084B01201A6008BD064A0120136008BD012801D0002008BD0521A7
:20158000014A116008BD00BFD021084008B5FFF767FE012804D1FFF7C9FE012800D108BD40
:2015A000FFF750FF002008BD08B5FFF7FFFEFFF7BDFE012800D108BDFFF744FF002008BDC3
:2015C00070B5164B164A197812680029154C18BF0024D30700D470BD06F0A8F900210646B6
:2015E000114A1248124B134D10601C602B6842F8081C19201B6A98472B6812201B6A9847D6
:201600002B6819201B6998472B6812201B699847002EE0D1BDE8704006F08CB95C2900205F
:201620009C2108400000C080181004600000408014100460B0010010084B1B7833B10020E6
:2016400002460749074B0A6018607047064B0749074A002814BF18460846F2E75C290020F0
:2016600010100460141004600800C0800200C0800000C080044A054B1178054A002918BF1E
:2016800000231360704700BF5C2900200000C08014100460014B1868704700BF5008002017
:2016A00038B5044615460A46002111F0DFFD0122637B258062F30303637338BD014B1860BA
:2016C000704700BF5408002038B5064B064C1D684FF434410023054A0548256002F046FCD3
:2016E000012038BD043004405C08002079170000680800201B4B1B688BB32DE9F0479B6841
:20170000984710B90020BDE8F08706F00FF900224FF00009144B154FD3F800A039681AF1A3
:20172000804442EB02054D4508BF8C42064605D3C7F800A076B10120BDE8F087FEF7DEFED2
:201740000B4A0C491368086001331360C7F800A0002EF0D106F0EEF80120BDE8F0870020CE
:20176000704700BF54080020043004405C080020640800205808002010B5134B1B68B3B165
:201780009B689847D8B9114C236A984701280ED1FFF7B0FF636A0446984744B1BDE8104080
:2017A00000234FF434410A4A0A4802F0DFBB0023BDE810408021064A064802F0D7BBFFF74B
:2017C00099FF0446E9E700BF5408002028390100791700006808002070B5204E0546306824
:2017E00038B38368984728BB1D4C236A9847FFF781FF636A98471B4BB5F1404F1C6820D843
:20180000002033681849B3F90C200968D317521A63EBE173521943F10003101843EB04016E
:20182000090241EA106143F609520023000211F093FA70BDFFF75EFF0A4BB5F1404F1C682C
:20184000DED9FEF75BFE094B1B68C3F17E4303F57203C34248BF04F1FF34D1E75408002062
:201860002839010064080020600800205808002010B5104B1B68DA0704D4FFF7F1FC01280A
:2018800000D010BD0C4C23685B0204D46FF00042094B1A6010BD0122084B09481A7002F014
:2018A00031FF6FF480036FF000422360024B1A60F0E700BF9C210840101004605D29002062
:2018C000FC04002008B5114B1B68D90704D4FFF7C7FC012800D008BD06F028F80C4B1A682E
:2018E00012020BD40A4B1A6812F00A0F1CBF6FF00A021A60BDE8084006F01CB86FF4000227
:2019000004481A6002F0FEFEECE700BF9C21084010100460FC040020014B1878704700BF86
:201920005E29002008B5FFF713FC30B1034B5888A0F10200B0FA80F0400908BD8C080020C0
:2019400030B583B0FFF704FC18B1164C6388022B08D0144801A9FFF703FC012805D0002045
:2019600003B030BD012003B030BDFEF7C7FD6FF03F050C4C2D1A03E0FEF7C0FDC54209D591
:2019800060880228F8D1A0F10200B0FA80F0400903B030BD6088A0F10200B0FA80F04009F8
:2019A000F6E700BF8C0800207D2901D90120704708B50A460146024811F078FB002008BD88
:2019C000620B002010B5012488B040F60202182102A8FFF765FE104A9DF8183011680F4AD9
:2019E000898823F00F03ADF81A1002A801A98DF818308DF816400792FFF7B2FBA04202D0F6
:201A0000002008B010BD02A8FFF70EFC001BB0FA80F0400908B010BD4C05002020050020BE
:201A200008B5FFF7CFFF012801D0002008BDFFF787FFC0B208BD00BFF8B50E4D00200E4E50
:201A40002C680E4F06E02379022B06D024682B68A34209D02379032BF5D133782BB1246890
:201A60002B680120A342F5D1F8BD384602F04AFE0120EBE7540B00205C290020FC04002063
:201A800030B583B0FFF706FE0446FFF761FB08B903B030BD0A4801A9FFF762FB0128F7D1F7
:201AA000FEF72CFD6FF03F052D1A03E0FEF726FDC542EDD5638803F44063002BF6D0E7E716
:201AC000010001040B280BD00C2801D001207047042A08D139B10A4B00201B680B6070470A
:201AE000082A00D109B902207047064A4B1E073112F8010903F8010F8B42F9D100207047CA
:201B000088080020BB08002008B5FFF721FB30B1044B5B88022B14BF0220012008BD022026
:201B200008BD00BF8C08002000B585B00021082202A811F09BFB42F2034302A801A9ADF884
:201B40000830FFF70DFB20B19DF90A30803303D0002005B05DF804FB9DF80C0000F00C0062
:201B6000A0F10400B0FA80F0400905B05DF804FB30B583B0FFF7ECFA18B11A4C6388022B29
:201B800002D0012003B030BDFEF7B8FC164D2D1AFFF7DEFA30B1FFF7C7FF18B1FEF7AEFC8C
:201BA000C542F5D401A91148FFF7DAFA6FF03F05FEF7A4FC2D1AFFF7CBFA30B1608802285B
:201BC00004D1FEF79BFCC542F5D4608842F202439842D6D042F20743C01AB0FA80F0400938
:201BE00003B030BD8C08002000FEFFFF010001040B2810B502D00124204610BD082A14D156
:201C000099B1114A01F1080313F8010D8B4202F8010BF9D1FFF79CFA04460028ECD00B4B5C
:201C20005B88022B04D00024E6E70224204610BDFFF79EFF012814BF03240024FFF780FE28
:201C4000012818BF0324D7E7B40800208C08002030B585B0FFF77CFA20B3144B5D88022D43
:201C600020D142F203440822002102A811F0FEFA9DF80C3065F301038DF80C309DF80C007B
:201C800000F00303022B0ED1082200210DEB020011F0ECFA01A902A8ADF80840FFF760FA85
:201CA0000028EBD1FF2005B030BD00BF8C08002008B5FFF731FE012814D0FFF749FA88B1AB
:201CC000094B5B88022B0DD1FFF742FA30B9FFF7BFFFFF2806D0C0F3801008BDFFF724FFD5
:201CE0000028F4D0002008BD8C08002010B5FEF705FC154C241AFFF72BFA30B1FFF714FF00
:201D000018B1FEF7FBFBC442F5D4FFF731FFFFF799FB00220D4B0E4819794280022908BF7A
:201D20001A710C4B1A79022A04BF00221A710A4B1A79022A04BF00221A71084B1A79022AFC
:201D400004BF00221A7110BD00FEFFFF240900208C080020B00900203C0A0020C80A002018
:201D600008B5FFF7D9FD012801D0FFF7BFFF012008BD00BFF8B5FFF7CFFD01282ED0FFF7FB
:201D800067F9FFF7E5F918B11A4B5B88022B25D001258424184A1948577946791849194BF7
:201DA00065F3830765F38306577146714F795E7965F3830765F3830610600160C480D48016
:201DC000CC804F710B601A60DC805E71FFF758F9FFF7DCFBA84203D00020F8BD0120F8BD6B
:201DE000FFF7EEFBFFF7EEFD0128F5D1BDE8F840FFF7A6BD8C08002024090020B009002024
:201E00003C0A0020C80A002030B585B0072800F2AE80DFE800F01E602731345B6B04554CD5
:201E20002177FFF795F918B36388022B20D1FFF79FFE01280CBF00240324FFF7B5FB012811
:201E40007CD0FFF77DFD012818BF0324204605B030BD012900F08580002972D00224204681
:201E600005B030BD434C6186FFF772F90028DBD10024204605B030BD3E4C2186D1E731F0DF
:201E80000703EBD13B4C3C4801F00103C1F34005228B43F0020343EA85030578C1F3800137
:201EA00002F4FE421343A94223830170B9D104F118010222314811F0F9F8314803A9FFF752
:201EC0004FF900280CBF03240024BFE731F00103C4D1CCB2BAE7A1F10B030F2BBED8254C1C
:201EE000C9B2A37B8B42C3D0A1739AE701F115031A2BB3D86FF014030C25224A01E052F83C
:201F00003530994227DD013DF9D2FFF721F9044600289BD00422002103A811F0A7F91022C2
:201F2000184B03A803EBC505AB8802A90024ADF80E30ADF80C20FFF713F987E7FFF7DAFBEA
:201F40007FE70191FFF7E8FC012891D0FFF7CEFE01990C467AE70B4B0B4A03EBC503136042
:201F6000D3E7FFF707FF012882D003246EE701246CE700BF8C0800205C2900200E090020ED
:201F80000C090020703901004C050020C9B170B50C4684B018280ED8DFE800F0413C373209
:201FA0001B1015AE7E78730D0D0D6F6B66620D5E5A5610524E00012004B070BD00200860AC
:201FC000FAE7022070475C4B00201B681B680B60F2E70023594A0B60137E03F001030B6012
:201FE000127E520744BF43F002030B60544B1B78002B7FD00B68002043F004030B60DBE7AC
:202000004E4B00201B8E0B60D6E74C4B00205B8E0B60D1E7494B00209B7B0B60CCE7FFF795
:2020200097F830B1454B5888A0F10200B0FA80F0400920600020BFE77D2300200B60BBE7B7
:20204000182300200B60B7E70A2300200B60B3E7202300200B60AFE7032300200B60ABE723
:20206000052300200B60A7E76FF0140300200B60A2E71A2300200B609EE70B2300200B608F
:202080009AE7304B00201B780B6095E72E4B00201B785BB20B608FE7FFF75AF890B3274B93
:2020A0005B88022B2ED100260822002102A811F0DDF802229DF80C3042F2034562F38303D4
:2020C0008DF80C300AE0002102A811F0CFF801A902A8ADF80850FFF743F8F0B19DF80C20DE
:2020E00002F00C02082AEED0E6B99DF90A30236080331ED000205FE7104B002093F91C30A4
:202100000B6059E7FFF736FE012808BF0646CBD06FF07F03032023604EE780238DF80A30F5
:20212000002EF5D0FFF7F8FB0128DED0FFF7DEFDDBE7032040E700BF4C0500208C0800202B
:202140005C2900205B2900201208002010B5FFF7E3FB012822D0FEF7FBFF18B11D4B5B8845
:20216000022B1ED0FFF706FE0128044610D1FFF76FFDFF2804D000F00300441E18BF012448
:20218000FFF7CAFB01280AD0FFF7B0FD204610BDFFF7C2FB012801D0FFF7A8FD01242046D8
:2021A00010BDFEF7ABF90C4C241AFEF7D1FF30B1FFF7BAFC18B1FEF7A1F9C442F5D4FFF7B4
:2021C00047FDFF28EAD000F00300441E18BF0124E5E700BF8C08002000FEFFFF2DE9F04305
:2021E000DFF8E08083B081460F46D8F80060FEF785F9304D2D1A03E0FEF780F9C5421CD5A9
:202200003479022CF8D0032C12D1D8F800100B7A062BDEB202DDB51FBD4210DD00252846B1
:202220000B680D720D71C8F8003003B0BDE8F0830025284603B0BDE8F0833479E3E7484610
:202240002A46093110F032FF0422D8F80010F31CCB5CDFF874905BB289F80030331DCB5C57
:20226000154F053603F03F030DEB020031443B7010F01CFF0198FFF7AFFA104B104A1B78D5
:2022800010605BB100222846D8F8003019681A72C8F800101A7103B0BDE8F08399F800105E
:2022A000042049B289B203F011FB2046397803F00DFBE7E7F4FEFFFF5B2900205C290020AC
:2022C000880800205C0B00201208002070B588B00446FEF73DFF18B1344B5B88022B1ED06F
:2022E000FFF748FD012816D10546FEF707F96FF01F031E1AFEF72CFFA8B1FFF715FC0128F1
:202300000FD1FEF7FBF8C642F4D4002D47D10224204608B070BD0124204608B070BD0025DA
:20232000E3E70028F1D1182142F6014202A8FFF7B7F900221E4BE4B28DF8174006930492B9
:202340009DF81430012062F303038DF81430FFF773F902A801A9FEF703FFD8B1154C22782E
:2023600000E0CAB1BDF80A3003F44063002BF8D0BDF80A40A4B2B4F5105418BF0124FFF732
:2023800079F9002DC8D0FFF7C7FA0128C4D0FFF7ADFCC1E70124F2E7FEF74EFCDFE7FFF752
:2023A000BBFA0128B3D0FFF7A1FCB0E78C080020620B00205C2900207D2801D90120704755
:2023C000FFF784BF7D2901D90120704710B50C4601462246034810F069FE2046BDE8104099
:2023E000FFF774BF620B00202DE9F0410025394F3948FEF777FDFFF7A7F838468C22294619
:2024000010F034FF8C222946344810F02FFF8C2229463348334C10F029FF8C2229463248EC
:2024200010F024FFDFF8E480304B314E2946802220461F60C8E9007510F018FF304642F267
:2024400002024FF2F0034FF0A60C012742F6010E20F8022BE26827491340A26984F81CC02F
:202460001140254A94F837C01A43244BE260244A0B4367F3030CC4F800E0A36184F837C0D3
:2024800004F118016261C4E908550222C4F810806560A560E583A56310F008FE3A4604F13C
:2024A0001A01301D10F002FEFFF764FCB84203D02C462046BDE8F08104461248FFF7FEF813
:2024C000FFF702F92946104802F056F82046BDE8F08100BF240900200C050020B009002072
:2024E0003C0A00208C080020C80A00205C0B00200C090020007C008000011AB10702FF6FD5
:202500001409002060390100FC040020540B002008B500F08BF880B208BD00BF00F010B9A6
:2025200038B50C4D04202B685B6998472B6804205B6B984701280446F8D12B6840F201405D
:20254000DB699847044B054A1C6013689B07FCD538BD00BFB8010010282008602820084093
:20256000034B1B68002B0CBF02200120704700BF180C0020F8B503880446002B2AD0B3F548
:20258000847F2CD1184B1B788B4201D00120F8BD164D2B6873B1164B164A1B6812685B6836
:2025A000022017460026984730182B6847F1000198472E60104B40F201401B689B6A9847E1
:2025C00001210E4B0E4A196013689B07FCD50D48FEF78EFC4FF4847323800120F8BD002317
:2025E00023800320F8BD00BF13080020180C0020CC01001004800240B80100102820086006
:20260000282008405005002008B5064B04201B685B6B9847012809BF034B00201868C0F3C9
:20262000400008BDB80100103C20084070B5274B1B6873B126480023024612F8011B0029C2
:2026400037D10133042BF8D1002400252046294670BDFFF7D9FF002835D01E4A1E4B1268B5
:202660001A420ED11D4A0121134611601A68002AFCD110464FF4807104F04EFE0122184B03
:202680001A6005F053F90646124A1368DB07FCD5144B154A1B68126802205B68154600248A
:2026A0009847241845F10005002ECFD105F042F9CCE700210D4AC15402EBC303D3E90045D2
:2026C0002046294670BDFFF72BFFC6E7180C00201C0C00200880024001000080F09F024083
:2026E000A8025042CC010010048002402008002038B500240D4D0E4A2C6013680D4923F080
:202700000103096813604B6931209847224620464FF4807104F000FE0122074B2A60197869
:202720002246BDE83840054801F0BEBFA80250420C800240B00100101308002064050020CA
:2027400010B5074C2378802B00D010BD01F00CFF0346002123700348BDE8104001F00CBF89
:20276000130800206405002008B505F0DFF8003818BF012008BD00BF80F31088704700BFD7
:20278000827A044B03EBC2035B68181AB0FA80F040097047200C00202DE9F04306464A4AB7
:2027A000B17A012085B002EBC10102E0C1E8440F4CB1D1E84F3F13F0FF05F7D00325284663
:2027C00005B0BDE8F083BFF35F8FB17A3F4B02EBC10256601B68F078DB6B3D4F9847DFF8FE
:2027E0000481B37A3A6808EB0313586853699847B946B37AD9F8002008EB03135868536B7D
:20280000984701280746F4D1B37AD9F8002008EB0313D269986890472E4B2F4A1F60136879
:202820009B07FCD50320B37A2C491B0158F80320536923F00F035361B37A1B0158F8033070
:202840001862B37A096832891B0158F803000F683AB1337A002B31D1737A002B0CBF0324F0
:202860000124082173682246CDE9003100231C49B847164A3178B37A12681B010091546C3C
:2028800058F80300B2784FF0FF337178A047B37A124C1B0158F80320536843F002035360BA
:2028A000B37A22681B0158F8030003A9136998470028F5D1284605B0BDE8F083737A002BAA
:2028C00014BF03240224CCE7200C0020B4010010B80100102820086028200840C401001036
:2028E000006CDC02F439010070B5214D837A05EBC3025268904201D0042070BD1D491E4A9F
:20290000096802EB031304460A6A9868904701211A4B1B4A196013689B07FCD5194E60781C
:2029200033689B6B984733684FF4005160789B6998473368A0789B6B984733684FF4005166
:20294000A0789B699847336820789B6B9847336820784FF400519B6998470020A37A05EB8D
:20296000C3035860A37ABFF35F8F05F8330070BD200C0020B8010010F439010028200860CC
:2029800028200840B40100102DE9F04F044690F80AC035480E4600EBCC00416885B08C42BD
:2029A00003D0042005B0BDE8F08F1F462F4BDFF8C8801B6808EB0C1C5B6BDCF804001546B2
:2029C000984701284ED1A37A294908EB0312D26809681801114245D0DDE90E3203EB02090E
:2029E000A9454B46B8BF2B46002B019338D0D8BF0DF10C0A28DD4FF0000BDFF878900DF1D2
:202A00000C0A5D45D4BF002116F80B1058F800000391D9F800305B689847A17AD9F800307E
:202A2000090158F80100DB68514698470E9B5B45C4BF039B07F80B30019B0BF1010B5B459A
:202A4000A37A4FEA0310DCD10A4D01E0A37A18012B68514658F800001B6998470028F5D127
:202A600000209FE705209DE7200C0020B801001078200840C4010010F439010010B5BAB0E0
:202A80000A460446282168460AF08AFD6B46C021034A0AA805F030FD0AA8A0473AB010BD21
:202AA000143A01002DE9F0410546B0B029B300240E46174FDFF8608074B1E30715D53A46EB
:202AC000C021335D684605F017FD6846A847072C1AD00134002CF0D13A46C0216846337838
:202AE00005F00AFD6846A847F3E74246C021684605F002FD6846A847E1E76846C021054A15
:202B000005F0FAFC6846A84730B0BDE8F08100BF283A0100183A0100A4600100F0B503888D
:202B200005460E46B1B01BB3702B1CD1274B284F1868436831463A6826489847012838D98B
:202B40006C46254AC021204605F0D6FC2046B04730462249FFF7A6FFC0212046204A05F0C7
:202B6000CBFC2046B047002303202B8031B0F0BD13781446202B03D114F8013F202BFBD04C
:202B8000002BDDD02021204610F0E0FB104F386018B1002300F8013B3860204600F0FCFFDB
:202BA0000A4B186040B1002170230A4A11802B80BFE7002031B0F0BD6C46C0212046094A73
:202BC00005F09AFC2046B047BBE700BF340C0020300C0020380C0020683A0100AC290020F4
:202BE0006C3A0100303A010000F0BEBF30B503880446B1B023B100230320238031B030BDB0
:202C00000D46064AC021684605F076FC6846A847034B04489B6A9847EDE700BF703A0100C2
:202C2000346B0100943A010030B503880446B1B023B100230320238031B030BD0D46064ADC
:202C4000C021684605F058FC6846A847034B0448DB6A9847EDE700BF9C3A0100346B010037
:202C6000943A01002DE9F04103888046B0B033B100230320A8F8003030B0BDE8F081124A41
:202C80000D466846C02105F037FC6846A8470F4801F04CFE07460028EAD00D4E7C68236802
:202CA0005BB1A3683246C021684605F025FC6846A84754F80C3F002BF3D1384601F09CFEB4
:202CC00007460028EAD1D3E7C03A0100800C0020243E010030B503880446B1B023B10023EE
:202CE0000320238031B030BD0D46094AC021684605F002FC6846A84728460649FFF7D2FEF8
:202D00006846C021044A05F0F7FB6846A847E6E7D83A0100AC290020C85B010070B50388A9
:202D20000446B0B023B100230320238030B070BD0D463B4AC021684605F0DEFB6846A8474D
:202D4000384BC0211B68384A384E684605F0D4FB6846A8473368C021354A684605F0CCFB10
:202D60006846A8473368002BDDD005F04FFC064603F0F6FBC02103462E4A684605F0BCFBD7
:202D80006846A8472C4BC0212C4A1B68684605F0B3FB6846A8472A4BC0212A4A1B7868464C
:202DA00005F0AAFB6846A847C0216846264A05F0A3FB6846A8478EB3304605F031FC01468D
:202DC0002846FFF76FFE214AC021684605F094FB6846A847FDF762FB1D4BC0211B681D4A83
:202DE000C31ADB09684605F087FB6846A84707F0FFFB194A0346C021684605F07DFB684609
:202E0000A84707F069FAC00940EA4163134AC021684605F071FB6846A84784E7104AD3E769
:202E2000EC3A010090220020FC3A01008C220020143B01002C3B010098220020403B010086
:202E4000682C0020583B0100703B0100C85B0100E02900208C3B0100B43B0100DC3B010061
:202E6000843B01002DE9F04704888146B4B034B100230320A9F8003034B0BDE8F0870D463F
:202E800007F0CEF928B10220A9F8004034B0BDE8F08706F0FBF9064604A8002E3FD0C02198
:202EA000224A05F029FB04A8A847DFF88CA0DFF88C801F4F306901F039FD0446F288B388DF
:202EC000C021009204A8524605F016FB04A8A847F4B1628A237D0292228A04A80192617D0C
:202EE00042460091C02105F007FB04A8A847A11D2846FFF7D7FD3A46C02104A805F0FCFA58
:202F000004A8A847204601F077FD04460028E0D1304606F0C1F906460028CBD1A8E7C02182
:202F2000044A05F0E9FA04A8A847A1E71C3C0100C85B0100FC3B01002C3C0100583C010095
:202F40002DE9F04306880746B3B0002E29D188461446002A2FD01578002D3CD128464449AF
:202F600010F05CFA00282DD10123424D2B6014B12378002B3AD100223F4E2B683260B3B9C1
:202F80003E4B3F4A02ACC021009220463D4A05F0B3FA2046C047306808F0BCFD286808F031
:202FA0009FFD002303203B8033B0BDE8F083364B334A02ACE7E715462D49284610F02EFA98
:202FC0000028D1D02846314910F028FA00283ED1284D2860CBE72021104610F0B7F90028C9
:202FE00032D000F8016B25460446B7E72021204610F0ACF908B10023037020461C4910F0B2
:203000000DFA8146A0B902ACC021214A20461A4E05F072FA2046C047C6F800902B6883B9D6
:2030200030681C4A1649154B002808BF0A46AAE72046164910F0F2F9A8B90F4E02AC306057
:20304000ECE7114B0E4A9EE72546044686E72B46114A02A8C02105F04FFA02A8C0470023D9
:2030600002203B80A0E723460C4A02A8F2E700BFBC3C0100500C0020540C0020AC3C01000D
:20308000A03C0100203D0100B03C0100C03C0100E03C0100A43C0100C43C0100003D0100CE
:2030A0002DE9F04103880446CEB053B91C4B0E461B7B63B9C0211B4A1EA805F01DFA1EA81F
:2030C000B0470023032023804EB0BDE8F0810DF0A9FC0028EED0144F386802F047F90546F4
:2030E000C021124A1EA805F007FA1EA8B047002DE7D0DFF83C802A46782168460DF022FDD0
:203100006B464246C0211EA805F0F6F91EA8B0472946386802F0F2F805460028EBD1D0E75D
:203120002C3000203C3D0100C4070020543D0100243E01002DE9F04303880546B1B02BB15D
:20314000002303202B8031B0BDE8F0830E46164AC021684605F0D0F96846B047134CDFF8A9
:203160005090DFF8508004F16007237E1BB194F82A30012B03D92034BC42F6D1E0E74A46A1
:20318000C021684605F0B8F96846B047304604F11A01FFF773FC4246C021684605F0ACF9B9
:2031A0006846B047E7E700BF643D0100C82C00207C3D0100C85B010070B503880646B4B0E9
:2031C00023B100230320338034B070BD0C46794AC021794D04A805F08FF904A8A0472B7BF3
:2031E000002B00F0D3806B7BC021744A04A805F083F904A8A047724B1B699847002800F0F4
:20320000CD80704AC02104A805F076F904A8A0476D4AC02104A805F06FF904A8A047204689
:203220006A49FFF72BFC95F85430C021684A04A805F062F904A8A047664AC02104A805F059
:203240005BF904A8A04720466349FFF717FC634AC02195F8403004A805F04EF904A8A04766
:20326000AB7BC021032B96BF5D4A5E4B52F8233004A85D4A05F040F904A8A047AB681A8C0A
:20328000002A00F08D80574B5849012A08BF0B46C021574A04A805F02FF904A8A047554A04
:2032A000C021EB8A04A805F027F904A8A0472B7EC021FF2B16BF6A8B4FF0FF33534304A833
:2032C0004D4A05F019F904A8A04795F85E30C021032B96BF494A434B52F8233004A8484A42
:2032E00005F00AF904A8A047C021464A04A805F003F904A8A047686C002853D00DF0C0FBCB
:2033000001462046FFF7BAFB6B6CC0213E4A9B7904A805F0F1F804A8A047B5F84A30C021DC
:203320003A4A04A805F0E8F804A8A047AA8AB5F84830C021009204A8354A05F0DDF804A888
:20334000A047EB7BC021334A04A805F0D5F804A8A04795F85B2095F85A30C021009204A883
:203360002D4A05F0C9F804A8A0476A7C2B7CA97C1344CDE90023029195F85730C021274AB2
:2033800004A805F0B9F804A8A0471AE7C021244A04A805F0B1F804A8A04712E7214A31E79F
:2033A000214B75E7C021214A04A805F0A5F804A8A047B2E7943D01002C300020B83D01004B
:2033C000346B0100CC3D0100EC3D010048300020F83D0100083E010058300020143E010009
:2033E000C0470100803D01001C3E01008C3D0100283E0100343E0100503E0100B047010081
:20340000743E0100843E01009C3E0100B83E0100C83E0100E43E0100F83E0100283F01009B
:20342000A43D0100DC3D0100883D0100B03E010030B503880446B1B023B100230320238003
:2034400031B030BD0D46054AC021684605F054F86846A84702480FF053F8EEE7683F01007E
:20346000943A01002DE9F041B0F800800546B0B0B8F1000F3CD10E461446002A4CD017781B
:20348000002F68D138464D490FF0C8FF00284AD101234B4F3B6014B12378002B65D109F094
:2034A0003BFD0346474C59689A680068DB680FC43B681BB3444F3B69984704466846002C0C
:2034C0003AD1424AC02105F017F86846B04730463C49FFF7D3FAC0213D4A684605F00CF8FE
:2034E0006846B047BB68214636489847FB689847002303202B8030B0BDE8F081324C23690D
:20350000984700B3C021334A684604F0F5FF6846B047E3699847EBE71746284938460FF038
:203520007DFF0028B4D038462B490FF077FF002838D1234F3860AEE7C021284A04F0DCFF0A
:203540006846B047D4E76846C021254A04F0D4FF6846B047CCE7202110460FF0F7FEF0B1C2
:2035600000F8018B274604468CE7202120460FF0EDFE08B1002303702046124909F0A8FF5C
:203580008046002894D12346C021164A684604F0B3FF6846B0470220A5F80080ABE72746F7
:2035A00004466FE73B46C0210F4A684604F0A4FF6846B047002302202B809CE7BC3C01005A
:2035C0004C0C00205C0C0020346B0100B03F0100D43F0100F83F0100C03C0100DC3F0100F6
:2035E000204001009C3F0100843F0100F0B503880646CBB023B10023032033804BB0F0BD5E
:20360000304A0D461AA8C02104F076FF1AA8A8470AF0B2FA0AF042FA044600284FD0C021D2
:20362000294A1AA804F068FF1AA8A8472846211DFFF724FAA369002B2ED1244AC0211AA842
:2036400004F05AFF1AA8A84709F08AFA00282EDD09F086FAC02103461D4A1AA804F04CFFB1
:203660001AA8A84709F078FB04460028C3D0194F2246642101A809F0DBFB3A46C02101AB4E
:203680001AA804F039FF1AA8A847204609F06AFB04460028ECD1AEE7C0210F4A1AA804F013
:2036A0002BFF1AA8A84709F05BFA0028D0DCC0210A4A1AA804F020FF1AA8A8479BE7084A7E
:2036C000BCE700BF384001007C3D01006440010088400100A840010048400100B040010084
:2036E0007C400100F0B5078804460D46B3B0D7B19B2F13D1474E3368002B4FD0464800F0AB
:2037000015FE70B13368002B48D0C021434A02A804F0F2FE02A8A847002333600023032006
:20372000238033B0F0BD1646002A5BD01378002B58D0202110460FF009FE00B1077030468C
:20374000374909F0C5FE0746002857D0354AC02102A804F0D1FE02A8A84728463049FFF74E
:203760008DF9C021304A02A804F0C6FE02A8A8472E4A2F4B1268274E4FF4207126481A60D0
:20378000356000F0BFFD042300228021244809F05DF99B2323803368002BAFD1254AC0214C
:2037A00002A804F0A9FE02A8A84728461C49FFF765F9214A214B16881F78FCF76FFE4FF455
:2037C0007A72154B009719683346401A02FB00F2D2090192C0211A4A02A804F08DFE02A83D
:2037E000A8479BE7C021174A02A804F085FE02A8A84700230220238033B0F0BD3346C0218A
:20380000114A02A804F078FE02A8A8470220278087E700BF3C0C0020840C00201841010038
:20382000700C00200C410100C85B01003C0E0020400C002024410100482900205F29002005
:2038400040410100C4400100F04001002DE9F04103880646B2B02BB100230320338032B079
:20386000BDE8F0810D460AF0A1FA044602A8002C42D0C021254A04F03FFE02A8A847DFF827
:20388000A880234F4246C02102A804F035FE02A8A84720460AF082FA01462846FFF7EEF84E
:2038A0003A46C02102A804F027FE02A8A84720460AF076FA01462846FFF7F4F8627C1549A8
:2038C000042A94BF51F822001348237CC021134A009002A804F010FE02A8A847C021104AB4
:2038E00002A804F009FE02A8A84720460AF064FA04460028C6D1AFE7C0210A4A04F0FCFD0B
:2039000002A8A84702203480A9E700BF7C410100944101009C470100803D01009C410100D5
:20392000C85B0100604101007C3D01002DE9F041B2B00746C021104A104C02A804F0DCFD03
:2039400002A8B8472568A5B1DFF8348063681E68304600F011FC2B464246C021CDE900609C
:2039600002A804F0C9FD02A8B84754F80C5F002DECD132B0BDE8F081B44101009C050020EA
:20398000C44101002DE9F04306880446B3B0002E4ED10F46154612B11378002B4ED10020E8
:2039A00000F0C8FB0025504B18602B46C0214F4A02A804F0A1FD02A8B8473846FFF7B6FF23
:2039C00000230220238033B0BDE8F083202140460FF0BCFC08B1002303700A22404601A9DB
:2039E0000FF020FFDFF81491C9F80000002856D1019B434541D03368984216D001462846D8
:203A000000F074FB28463A490FF008FD002863D1D9F80030032B45DC08F07AFDC021354AD7
:203A200002A804F069FD02A8B8473846FFF77EFF00230320238033B0BDE8F083202110466D
:203A40000FF084FC8146002836D08046284608F8016B00F06FFB0346234E294626483360CE
:203A60000FF0DCFCB8B999F80130002BAED14FF0FF324FF00008214B1A604346C021204A21
:203A800002A804F039FD02A8B84700230220238033B0BDE8F08333680133E4D185E70428AA
:203AA000EBD8A8E708F024FDC021164A02A804F023FD02A8B847B8E7284600F03BFB034677
:203AC000094E29460C4833600FF0A8FC0028CED033680133CBD168E7284607490FF09EFCBF
:203AE000002895D0A1E700BF6C0C0020C43C0100DC410100F8410100D8410100580C002063
:203B0000003D0100E041010030B503880446B1B023B100230320238031B030BD054A0D46FD
:203B20006846C02104F0E8FC6846A847FCF7F8FDEFE700BF10420100074A106858B130B4FB
:203B400000251560054A064C064813802170006830BC00F0D7BD70473C0C00204829002030
:203B60005F290020400C002010B5074C204600F0D9FE2046054900F0DBFEBDE8104004492D
:203B8000044808F0BDBF00BF800C002074050020393B0000440C002070B505460E4800F0C7
:203BA000C5FEA8B106467468206818B90AE054F80C0F38B129460FF031FC23460028F6D13B
:203BC000184670BD304600F017FF06460028EAD10023184670BD00BF800C002010B5038846
:203BE0000446442B06D0452B0ED0BBB100232380032010BD0D4B1B788B4212D18AB10020D0
:203C000045230B49088023800A490948FEF786FF012808D944232380012010BDFEF7E4FFC5
:203C2000F8E7012010BD002010BD00BF8F310020940C0020393C00000146014804F036BC80
:203C4000143A01000021014800F096BC7C05002038B5674CFCF7A8FAFCF7D2FB00F0CCFB1C
:203C600000F0ACFC0021634800F086FC00F044F9FCF718FD00F08CFA00F076FDFCF7D2FAA1
:203C800001F022FA01F06CFE00F092FB2368022B25DC0822584959480FF008FA0021584858
:203CA00000F06AFC4FF0FF3009F0BAF923680546022B00F38380FCF7D1FAFFF7C3FF51488C
:203CC00000F0C4F8FCF7F4FC00F092FC0446FCF721FD14F0FF0FF7D1FCF72AFBF4E74A4A1B
:203CE0004A494B4804F0E2FB4A4804F0DFFB2368022BCEDD444A4549454804F0D7FB464B0A
:203D00004648196804F0D2FB2368022BC1DD3E4A3E493F4804F0CAFB414B4248196804F0A3
:203D2000C5FB2368022BB4DD374A3849384804F0BDFB3D4B3D48196804F0B8FB2368022B5F
:203D4000A7DD314A3149324804F0B0FB48F2A511374804F0ABFB2368022B9ADD2A4A2B49B1
:203D60002B4804F0A3FB0221324804F09FFB2368022B8EDD244A2549254804F097FB2E4BA8
:203D80002E48198804F092FB2368022B81DD1E4A1E491F4804F08AFB294804F087FB236854
:203DA000022B7FF776AF144800F056F92368022B7FF76FAF234804F079FB6AE7124A134978
:203DC000134804F073FB204804F070FB2368022B7FF771AF05B10235284600F02DF9236815
:203DE000022B7FF768AF174804F060FB63E700BF4806002054060020AC290020602E0020C7
:203E00005C0700207C700100C04801005838010060380100C8480100346B01000049010004
:203E2000EC64010010490100C45901001C49010028490100444901004A2900207C490100FA
:203E40008C490100C85B0100A449010010B50446006830B1002100F08FFB54F8040F002800
:203E6000F8D110BDF0B50388054683B033B14A2B18D188291BD0012003B0F0BD1B4800F04C
:203E800055FD044630B1A168201D00F03BFA2468002CF8D10122164B1A704A2301202B8072
:203EA00003B0F0BD002303202B8003B0F0BD0F48019200F03BFD04460028EED0019A031D54
:203EC0009A4205D02468231D002CE6D09A42F9D1084E2146054800F077FDD4E905233768EB
:203EE00032600BB1E06998473760D6E7980C0020602900203C0E002010B50024054B06489A
:203F00001C7000F00FFD2146BDE81040034800F033BB00BF60290020980C00208C050020B7
:203F200070B504460D48A26102780498E361606132B9A1600A482146BDE8704000F0F8BC01
:203F4000084D094B2E68201D2B6000F0DBF921462E600348BDE8704000F0EABC60290020C2
:203F6000980C00203C0E00208C05002010B5044C82B024680094FFF7D3FF02B010BD00BFF5
:203F80003C0E002070B50C4B04461B782BB92146BDE87040094800F0CBBC094D094B2E68B6
:203FA00004302B6000F0B8F921462E600348BDE8704000F0BDBC00BF60290020980C002077
:203FC0003C0E00208C05002010B50A4B04461B783BB9C0E903332146BDE81040064800F062
:203FE000F3BC043000F0BAF92146BDE81040024800F0EABC60290020980C002038B50C4B4E
:2040000004461D786DB90B4800F090FC38B1A04202D10BE0844209D000680028FAD1012028
:2040200038BD0430BDE8384000F080B9002038BD60290020980C002000B58BB0024628210E
:20404000684609F0ADFA6946024804F02FFA0BB05DF804FB143A0100F8B1F8B500240546D9
:204060000F4E104F54B1E3070DD53046295D04F01DFA072C10D00134002CF4D1304629785C
:2040800004F014FAF7E7384604F010FA3046295D04F00CFA072CEED1F8BD034804F006BA28
:2040A000283A0100A4600100183A0100A0B110B50B49044601F06AFC20B1BDE81040094823
:2040C00004F0F4B9E3880848190A41EA032189B2BDE8104004F0EAB9024804F0E7B900BFAE
:2040E000104B0100D8490100E0490100042900D97047F8B50D46064601460C480FF08EF9EE
:204100000B4C0746216851B157B9D4E90123AB42A8BF2B46136054F80C1F0029F4D1F8BD2D
:2041200030460FF07BF90028EFD0F4E7D84101009C050020D0B1F8B50E4F396899B1064637
:204140003D46002403E055F80C1F013459B130460FF064F90028F6D104EB440407EB8404AC
:2041600063681868F8BD4FF0FF30F8BD4FF0FF30704700BF9C05002004289ABF024B53F85A
:2041800020000248704700BF6C4A0100E8490100704700BF10B5FCF781F90B4B1A68D2E91B
:2041A000003192680B44191A52B1D2E9003423441B1A9268994228BF1946002AF5D143185E
:2041C000024A136010BD00BFB40C0020B00C00202DE9F8430388054653B3592B2BD187297B
:2041E0002ED082291FD14FF000092B4FDFF8B0803C68C4B1002603E0A36826469BB11C4616
:20420000204600F0A3FA0028F6D022468821E06800F04AFA00282BD0404600F073FAA3681F
:204220002646002BEBD159232B800120BDE8F883194A1360F7E700232B800320BDE8F883FE
:20424000154F0020396819B9EDE789680120D9B1CB689342F9D000B139608B68002BE2D00C
:20426000D86890420BBF9B6819468B609B68F5E7E06076B1A2683B68B260C4F808902BB1E0
:20428000FFF788FF3C68B4E73960CCE7034A1360C9E7A3683B60F0E7B40C0020B00C00206D
:2042A0005406002010B50446104800F02BFA1049E3680A684BB142B194420FD0134601E014
:2042C0009C420BD09B68002BFAD10A4BA2601B680C60E360BDE81040FFF75CBF054B1B68CA
:2042E000E360BDE81040FFF755BF00BF54060020B40C00203C0E0020014800F003BA00BF44
:204300005406002010B5044600F00AFA2046BDE81040FFF7C7BF00BF10B5044600F008FA89
:204320002046BDE81040FFF7BDBF00BFC068B0FA80F04009704700BF024B1868003818BF14
:2043400001207047B40C0020024B186808B1024B18687047B40C0020B00C002010B5124BBD
:2043600004461968814214D00B462BB19A68A24206D01346002BF9D10023C4E9023310BDC2
:20438000A2689A6049B1FFF705FF0023C4E9023310BD82681A60002AF5D10022034B1A6015
:2043A0000023C4E9023310BDB40C0020B00C0020034A04499079D37903EB00230B8070472D
:2043C000AC2900204A29002010B541600446FCF789F8206010BD00BF10B50446FCF782F8A9
:2043E000D4E900316FF000420B44C01A90422CBF0020012010BD00BFFCF77AB8024638B521
:20440000074C04982568C2E90130116015B10020226038BD08462260FCF76CF8002038BD3A
:20442000B80C002010B5084C206858B1D0E90131002222609847236823B1BDE810401868AC
:20444000FCF758B810BD00BFB80C00202DE9F843264F05463C688846844241D0002C33D060
:20446000234601E0002B2FD01B689D42FAD15BB31F4EAB7BD6F80090DBB10023AB73002CA3
:2044800030D0A54207D0A37BDB0704D52A468721204600F02FF82468002CF2D1AB683BB176
:2044A000454505D000228321356005F10C0098473C68A5420AD02CB12368AB420BD01C466A
:2044C000002CF9D1C6F80090BDE8F8832B68C6F800903B60F8E72B682360C6F80090F3E7DF
:2044E0002346C4E7AB68002BDAD1EBE7400E00203C0E00208368BBB170B5044602260B48D4
:20450000A673046004F10C000D4698470238012804D9832D02D00123A37370BD21462046F5
:20452000BDE87040FFF792BF704700BF3C0E0020002238B50A490B4B0C681A707CB10125F6
:2045400001E024685CB1E37B002BFAD02046E58100228221FFF7CEFF2468002CF3D138BDC9
:20456000400E002064290020024B1878421C1A70704700BF6229002070B50E4D2C68844260
:2045800007D00A4634B1234600E01BB11B689842FBD170BD0028FCD0012100230460064CB5
:2045A00081732668812183812860FFF7A3FF266070BD00BF400E00203C0E002030B48A25D6
:2045C0000023064A064815700649074A074C03700B601360237030BC704700BF62290020B1
:2045E00063290020400E00203C0E0020612900202DE9F041224D2B78FBB9224E3378C3B1F1
:20460000214822490278013B02EB4207013201EB870402F01F020270A068DBB211F8277076
:20462000D4F80480337058B1812F1DD0827BD2071CD428781844BDE8F081FFF779FFDCE7D8
:20464000134A146854B9F4E7A37BD90704D5424639462046FFF74EFF24685CB12B78002BAB
:20466000F2D0FFF765FFEFE70123837342463946FFF740FF337828781844BDE8F08100BF76
:20468000642900206329002061290020BC0C0020400E0020024A034B10781B7818447047F9
:2046A000632900206429002070B40D4E3478202C12D00C4B0C4D1B78234403F01F0303EB9B
:2046C00043030134347005EB8304C4E9012005F82310002070BC7047012070BC704700BF80
:2046E0006329002061290020BC0C002038B5837B034CDB07256801D5FFF7FCFE256038BD93
:204700003C0E002018B1837B013B012B00D970470123024AC3731370704700BF6429002024
:2047200010B541600446FBF7B9FE206010BD00BF10B50446FBF7B2FED4E90021C2F10103CE
:2047400003448B4284BF5218226010BD10B50446FBF7A4FED4E90032C3F1010318448242DF
:204760002CBF0020012010BD074B82B001AA9A42019304D9CD2103F8011B9342FBD10021FD
:20478000024802B0FFF7F8BE913100206406002038B5124CFBF7BEFF2378114DCD2B08D042
:2047A000AC4202D30EE0AC4212D014F8013FCD2BF9D1AC4202D30BE0AC4209D014F8013FA9
:2047C000CD2BF9D0FBF7A6FFAC4203D2281B38BDFBF7A0FF4FF0FF3038BD00BF91310020F1
:2047E0000050002070B5038804463BB1912B0ED11F48FFF79BFD70B9012070BD4FF4A06118
:204800001B48FFF77FFD91232380012070BD00232380032070BDFFF7BBFF164E164B051E70
:20482000A6EB030615DB002E13DBB5420DDD134B1B68002B09DD124A1249134803F036FEC6
:2048400032462946114803F031FE0948FFF764FDD9E70A4B1B68002BF7DD094A09490A48C0
:2048600003F024FE32462946094803F01FFEECE7440E0020005000209131002048060020D6
:204880008C4A0100944A010060380100C44A0100984A0100002301390170437083707047AC
:2048A0004378827801789A1A31EA020204D001330B4043700120704700207047427883788D
:2048C0000178D31A31EA030314BF10464FF0FF30704700BF034680785A781978121A0A4228
:2048E0001DBF421C0A409A704FF0FF30704700BF8278437801789B1A0B4214BF10464FF0AE
:20490000FF3070474378827800789B1A184070474378817802785B1A13420CBF01200020BC
:20492000704700BF00230360704700BF006870470368D3B110B4002400E0134699420ED01D
:204940001A681C46002AF8D100230B600368C3B11A461B68002BFBD1116010BC70470A68D3
:204960006CB1226000221A60EEE700230B6003684BB11A461B68002BFBD1116070470260CE
:20498000F0E70160E9E70160704700BF30B405684DB12B46002400E01346994207D01A68E7
:2049A0001C46002AF8D10D60016030BC70470A683CB1226000221A6005680D60016030BC8D
:2049C00070470260F6E700BF03688BB110B4002400E0134699421A6804D01C46002AF8D1D4
:2049E00010BC70472CB1226000221A6010BC704770470260F8E700BF00B10068704700BF70
:204A000010B504464288002140680EF02FFC23886288A0680021BDE8104002FB03F20EF028
:204A200025BC00BF30B44588ADB10022436802E00132AA420CD01C7819460133002CF7D102
:204A400001230B700588806802FB050030BC7047002030BC70472846F8E700BF30B444881E
:204A6000826854B18A420CD00023058801E0914208D00133A3422A44F9D14FF0FF3030BCB8
:204A8000704700234268D15C0029F6D00020D05430BC704783688B4208D84288008800FBAA
:204AA000023081422CBF002001207047002070474188034649B100205B68194413F8012BC4
:204AC00002B901308B42F9D170470846704700BF0023013A0271016043718371704700BF88
:204AE00010B44479827903460079A21A30EA020209D001201A6811555A79197902440A40C7
:204B00005A7110BC7047002010BC704710B4817942790479521A224207D003464A1C0068F0
:204B20002240405C9A7110BC70474FF0FF30FAE710B5044690F84C200346013280F84C2037
:204B40008021064A2030FFF711FA054B2246BDE8104000201978FFF7A7BD00BF314B000020
:204B60008D310020F8B50388044633B1B3F5867F08D182290AD00120F8BD4FF48673238031
:204B80000120F8BD002323800320F8BDFDF7ECFDBFF35F8F0022114B1E681A60BFF35F8F06
:204BA0000F4DFDF7E9FD28680028E6D00D4F03E055F8040F0028E0D090F8453026FA03F3C7
:204BC000DB07F5D5FFF71AFA0028F1D02B683A4618460221FFF7CAF9EAE700BF600E0020CB
:204BE0003C040020254C00000146034A034813680B431360FFF786BD600E00207406002068
:204C000010B5044690F84500FCF7E0F910B994F8440010BD01280ABF94F84400002080F034
:204C2000010010BD70B50446FFF7E8F900B970BD04F120063046FFF7E1F905462046FFF772
:204C4000DFFF01280ED00028F1D1002DEFD13046FFF7BAF90D4B22462846BDE87040197865
:204C6000FFF722BD002DE2D00025304623467E21074A84F84C50FFF779F9064B28462246E5
:204C8000BDE870401978FFF70FBD00BF8C310020314B00008E3100202DE9F843FFF764FCCE
:204CA000214B224C1870FFF75FFC214B214D1870FFF75AFC0021204A204B10702268C5E9E5
:204CC000013142B30126DFF880801D4FD8F80030916C92F845009B6B41F08C099847236841
:204CE000494693F84500FCF737F92268D8F8003092F8450006FA00F23A601B6B984723685D
:204D0000A96893F8453054F8042F06FA03F30B43AB60002ADAD10B480021FFF72DFCBDE8A7
:204D2000F843044800F0B0B98E3100203C0400208C310020540E00208D310020E94B0000E3
:204D4000E020024074060020B401001070B504880646672C1BD0792C33D05CB300233380AA
:204D6000032070BD00251E4C1E4923681E4A581C097820602846D554FFF796FC1B4B2A4690
:204D800085211868FFF790FC30B300232360184C134D06E00A28E5D00D28E3D02B687E2B2D
:204DA00015DD2046FFF7B2FE431CF3D167233380012070BDFFF7D8FB0A4A094B10701C60DA
:204DC000E5E7852901D0012070BD054CDDE706495A1CC8542A60E4E779233380012070BD52
:204DE000E40E00208F310020640E00203C0E0020E80E002010B5124C01462378A3B10A2824
:204E000006D00D2804D00F48FFF77CFC012010BD0D48FFF765FE0028F5D00023094823705E
:204E2000FFF770FC012010BD0748FFF759FE0028E9D1012303482370FFF764FC012010BD5E
:204E40006529002084060020E80E002008B5054905488022FFF73CFEBDE808400021034861
:204E6000FFF78ABBF00E0020E80E00208406002010B1837A012B01D901207047FDF78CBC41
:204E800010B1837A012B01D901207047FDF72CBD10B50446FDF774FC30B10123E178034A7B
:204EA0008B401360002010BD042010BDA02002400123C178024A8B4000201360704700BF57
:204EC0009020024010B584B08DF80F1018B1837A0446012B02D9012004B010BDFDF750FC4A
:204EE00050B1002320460122CDE900330DF10F01FDF74AFD04B010BD032004B010BD00BFEF
:204F0000B8B170B5837A0446012B82B002D9012002B070BD0D461646FDF732FC58B1002386
:204F2000324629462046CDE90033FDF72DFD02B070BD01207047032002B070BDB8B170B5D6
:204F4000837A0446012B82B002D9012002B070BD0D461646FDF714FC58B100222B4620461C
:204F6000114600960192FDF70FFD02B070BD01207047032002B070BD70B5134C134D267876
:204F80002B683046DB6B98472B68A078DB6B9847637893B901230E4A03FA06F61660E378A6
:204FA0002BB90123A1780A4A8B40136070BD0123A178084A8B40136070BD0123054A03FAA7
:204FC00006F61660EBE700BFA8380100B4010010A020024090200240C20708D5114B5A7860
:204FE000C2B101221B78104902FA03F30B6083070FD50C4BDA7832B101229B780A4902FA53
:2050000003F30B60704701229B78084902FA03F30B60704701221B78044902FA03F30B607D
:20502000E5E700BFA8380100A020024090200240C20708D5114B5A78C2B101221B781049BA
:2050400002FA03F30B6083070FD50C4BDA7832B101229B780A4902FA03F30B607047012239
:205060009B78084902FA03F30B60704701221B78044902FA03F30B60E5E700BFA8380100EC
:2050800090200240A020024001460148FFF750BC700F002038B505460748FFF747FC48B132
:2050A0000446A068284002D0636803B198472468002CF6D138BD00BF700F00200148FFF7F5
:2050C00031BC00BF700F002008B50448FFF798FCBDE808400248FFF793BC00BFA0060020F1
:2050E0009406002038B50E48FFF79CFC044678B10C48FFF797FC0546206058B100F0BAFA5D
:2051000005F19C01A5F8800005F1820000F0BAFB204638BD214602482C46FFF79FFCF7E7D5
:2051200094060020A006002010B5044607482146FFF7B0FC00B910BD21680548FFF78EFCAC
:205140002146BDE810400148FFF788BC94060020A006002010B5044609482146FFF79AFC9D
:2051600000B910BD2468B4F88010204600F06AFB04F19C0104F18200BDE8104000F094BBE9
:205180009406002010B5044603482146FFF782FC00B1206810BD00BF940600200368B3F88B
:2051A000800070470068C90034310844704700BF036803EB4103B3F88200704738B50546A7
:2051C0000F4B1048002D08BF1D46FFF7AFFB58B104462846211D00F0D9FB40B92046FFF70E
:2051E0000BFC04460028F4D14FF0FF3038BD064A064B9068201A801003FB00F038BD00BF09
:20520000104B010034150020AC060020ABAAAAAA2DE9F04705460F46214CDFF898A0DFF80E
:205220008490DFF8848004F1200654F8041FB9B18A68AAB1A5B1D9F80830EB1A4FEAA30CF2
:205240000C3308FB0CFC0BD04B68C86803FB0C0030B11AF80C3009680B41DB0700D59047C2
:20526000B442E2D1C5B10F4B0F4A9B68EB1A9B1002FB03F300220D482946C2540C480AF864
:205280000320FFF7A1FB0FB9BDE8F0872946BDE8F0470448FFF7E2BB4FF0FF33EAE700BF4A
:2052A00000150020AC060020ABAAAAAA24150020341500200C16002038B10368072B04D8D8
:2052C0000C4A52F82330984210D00B4A1368072B0AD830B4074C5D1C03608160156044F898
:2052E0002300012030BC70470020704781600120704700BF0415002008160020F8B5064608
:205300000846174F174C184D2EB358B1F3687168C01A90FBF1F0421C00EB400017D0B9681C
:2053200001EB8000FFF768FB80B1B968401A83100C3004FB03F30CD07068F16800FB03101D
:2053400020B1EB5C32681341DB07DDD5F8BD0020E8E70020F8BD3046FFF74EFB3046F8BD5A
:20536000AC060020ABAAAAAA0C16002010B504461148FFF7DBFA0146C0B1104B9868091A07
:205380009CB111F10C0F10D00D4B891003FB01F3E068616801FB030141B10A482268C35CE2
:2053A0001341DB0702D5084610BD00212046BDE81040FFF7A3BF00BF34150020AC060020F7
:2053C000ABAAAAAA0C16002010B504460846FFF7F5FE84B1431C02460DD06368E06803FBD2
:2053E000020038B1054B21689B5C0B4113F0010F08BF002010BD002010BD00BF0C160020F1
:205400002DE9F84316460D46FFF7DEFF28B10024012006B13460BDE8F88304462846FFF782
:20542000CDFE0130F3D11648FFF742FB0028EEDC1448FFF77BFA8146E8B1DFF85080104FFC
:20544000114D08E020460CF0FBFC04464846FFF7D3FA814678B1BB68A9EB03039B1005FBBA
:2054600003F318F80330002BF0D109F10401002CE8D10C46EAE7201E18BF0120C9E700BF5B
:20548000AC06002034150020ABAAAAAA241500202DE9F04182B0002845D00C46334B01AA9E
:2054A000002908BF1C4621460546FFF7A9FF002839D02046FFF782FE461C1AD06A68EE68C9
:2054C000002100FB026630460DF0D0FE5EB3EB686A68F31A93FBF2F35A1C06D00121244A75
:2054E0002C68D05CA1400143D154304602B0BDE8F081204FDDF804803846FFF793FA06464F
:20550000B0B131461C48FFF713FABB682146301DF41A00F037FA14F10C0F22D100216A6840
:2055200008460DF0A3FE0026304602B0BDE8F081B8F1000FF7D04046FFF740FE411C0BD0AA
:20554000BE6800EB400006EB800630460021FFF75FFE002ED5D1E6E731463046FFF758FEBF
:20556000C3E7064BA01003FB00F0A7E7104B01000C160020AC06002034150020ABAAAAAA82
:2055800028B311B3C3684268CB1A93FBF2F35A1C1BD070B401250F4E0468F25C05FA04F486
:2055A00022EA0402F254C3684268CB1A93FBF2F35A1C0DD004682846074905FA04F4CA5CCC
:2055C00022EA0402CA5470BC70470020704770472846F8E70C16002024150020A8B191B1A7
:2055E000C2684368891A91FBF3F35A1C0BD0012110B4064C0268E05C01FA02F20243E25428
:20560000084610BC704700207047704724150020B0B199B1C2684368891A91FBF3F35A1CC7
:205620000CD0012110B4074C0068E25C01FA00F022EA0002E254084610BC704700207047D8
:20564000704700BF2415002088B179B1C2684368881A90FBF3F0431C08D0054B00EB400081
:20566000996811EB800002D00430704700207047AC060020F8B50E4D0E4C2A782388134441
:20568000802B01DD0020F8BD06460B4F39460DF00DFD0A4A2B781178F0180B44DBB2F9180B
:2056A00022880DF003FD287823881844F8BD00BF662900204C2900201C1600204E290020FB
:2056C00070B4134B134D1B782C78134A23441288DBB213449BB21A18802A15DC013B1BB24C
:2056E000002B0CDB0D4A591C1E181144324411F8016D013B1BB202F801695E1CF7D1204441
:205700002870012070BC7047002070BC704700BF4E290020662900204C2900201C160020FE
:20572000084A138883420ADB10B4074980B20C881B1A204408801380012010BC7047002080
:20574000704700BF4C2900204E290020014B1880704700BF4C290020044A054B12781B78FD
:2057600004481344DBB21844704700BF4E290020662900201C160020004870471C1600203E
:20578000014B1888704700BF4C290020034A044B10781B781844C0B2704700BF6629002068
:2057A0004E290020054B064A18781278054B10441B88C0B2184480B2704700BF662900202C
:2057C0004E2900204C290020064A074B074912781B7808881344DBB2C0F18000C01A80B2DD
:2057E000704700BF4E290020662900204C29002038B5094D094C1A22002109480DF036FDE2
:205800002946204600F0BEF8294604F10800BDE8384000F0B7B800BF104B01008029002041
:2058200090290020002304480449054A03800B801370FFF7DDBF00BF4E2900204C29002076
:2058400066290020802970B54FF000030C46054628BF80240749084A084E0B8013703380A8
:20586000FFF7C6FF2946224605480DF01FFC2046348070BD4E290020662900204C2900200F
:205880001C16002010B50C461A2205490DF00EFC2046BDE81040102202490DF007BC00BFB7
:2058A000902900208029002010B50C461A22014604480DF0FBFB2146BDE810401022024895
:2058C0000DF0F4BB90290020802900200246024B012023F81210704790290020014B33F880
:2058E000100070479029002008B5044B0D3803EBC00000F047F8012008BD00BF802900206C
:20590000024B0D3803EBC000704700BF802900200149024800F03AB8104B01008829002065
:2059200070B505460D480E46FFF700F868B10446012D0CD01DB963680BB1984730B9204668
:20594000FFF75AF804460028F2D1002070BDA368002BF4D030469847F0E700BF9C160020C6
:20596000054B10B51B689847044B5B689847BDE81040034B5B68184728390100C4590100DA
:20598000EC64010008220DF091BB00BF082208B50DF05EFBB0FA80F0400908BD10B5094809
:2059A000FEF7F0FA0848FFF7E1FC48B1064C037A01465B0803722046FFF7A0FC0028F6D117
:2059C00010BD00BFB4290020B806002001460148FFF7FABCB806002080B110B50446FAF715
:2059E0005DFD2368C01AB0F5963F05D2207A032894BF0020012010BD002010BD00207047AD
:205A000070B50546144689B1022907D006290CD1BDE8704001463448FFF7D6BC0146324813
:205A2000FFF7D2FC064600282ED170BD01462E48FFF7CAFC0646002831D0FAF72FFD337A4A
:205A400030602344102BA8BF10233372FAF726FD3368E401C01AB0F5963FA4B211D2337A07
:205A6000042B35BF19220A224B215A2102FB04F4B2881E4B01FB0242A3FB02325209B2807E
:205A800070BD19224B21F1E7FAF708FD337A30602344102BA8BF10230C343372D6E73346D0
:205AA000294608221048FFF7F3FC06460028BCD0B0F90630ABB16FF03B018B426FF05802B4
:205AC000A8BF0B469342B8BF13464FF470625A33B2FBF3F3B3F5C07F28BF4FF4C073B380BD
:205AE000ABE74FF48073FAE7B80600201F85EB5138B505460420FFF7F1FE044629461C48E1
:205B000024B2FFF761FC78B15A23B0F9062004EB8404640003FB0244164AE31782FB0424C9
:205B2000C3EB6414C48038BD0346294608221048FFF7AEFC0028F6D0C480B4B16FF03B03F8
:205B40009C426FF05802A8BF1C469442B8BF14464FF4706204F15A03B2FBF3F3B3F5C07F5D
:205B600028BF4FF4C073838038BD4FF48073FAE7B80600201F85EB5138B50948FFF7F6FBD6
:205B800060B10446064D21462846FFF7F9FC21462846FFF7B3FB04460028F4D138BD00BF33
:205BA000B806002010B500210548FFF785FBBDE8104000234FF4E131024A0348FEF7D6B9D6
:205BC000B80600209D590000B4290020F8B5FAF765FC104E0746344600250D20FFF790FEFA
:205BE0002146FFF7D3FE103420B90135102DF4D10020F8BD0720FFF771FE06EB05152B7B10
:205C00008342F5D1A868381AB0F5206F8CBF00200120F8BD60170020F8B5174E00243746D8
:205C200035460D20FFF76CFE2946FFF7AFFE1035F8B90134102CF4D10F2407EB0410A0F154
:205C40001004214610220DF031FAA6422046F6D10720FFF743FE3873FAF720FC03460D20CE
:205C6000BB60FFF74DFEBDE8F84001460248FFF789BE002CE1D1EBE76017002038B110B429
:205C80000C4611461A460346204610BC18477047032912DD8AB110B413889278C3F30B03E7
:205CA0000AB143F4004302210F221C0A8370C4700170427010BC042070474FF0FF3070471F
:205CC000012906DD2AB100223F2302704370022070474FF0FF30704701290DDD62B110B44A
:205CE000044693880220C3F30A0343F408431A0A2370627010BC70474FF0FF30704700BFE8
:205D0000072916DDAAB10346082030B406251A24916899709168C140D97051891971D17A53
:205D20005971117B9971127C1D70DA715C7030BC70474FF0FF307047002A3FD0F0B492F8A2
:205D40002E6092F82A3006EB86073C1D03FB04F4012B054604F101002DDC042E2BDC04F160
:205D6000020C8C4527DA012BAB7005D01B2328706B70E01CF0BC704792F82B30EB70938DB7
:205D80002B71938DAE711B0A6B71002EEED02B462F44118E05339970118E0632090AD97044
:205DA000918D1971918D090A597192F82E109971BB42EED1DAE74FF0FF30DBE74FF0FF3053
:205DC000704700BF2AB330B4537C05464BB902291CDD01220320AB701C232A706B7030BC49
:205DE00070471A2912DD0146837002F1280402F1100333F8022F02314A701A889C424FEA59
:205E000012228A70F5D119221B20E5E74FF0FF30E5E74FF0FF307047CAB3F8B5B2F84A309F
:205E20001546022B30D892F84820044642BB02230127994228DD0026A270E6702671667170
:205E4000A671E67126726672B5F84A3005F14C01A372B5F84A3004F10C001B0AE372B5F896
:205E60004A200DF023F9C822B5F84A30B81C23441E73B5F84A3023445E7327706270F8BD45
:205E800003F10C070D33D4E74FF0FF30F8BD4FF0FF307047002A00F0028200232DE9F04FA2
:205EA000174683B0D370002900F07F8101296DD90246437812F8024B0646023944EA032450
:205EC000BD48C9B2E30B002B40F0A181C4F3C7137E2B04F07F0436D07F2B2CD0A142C0F0E7
:205EE00054811E2B40F05181022C40F04E815478137843EA04231C46DD0BBD7025051BB23C
:205F000048BF44EA0003A1F102044CBF1BB2C3F30B0314F0FF043B8002F1020300F0BB812F
:205F2000012C33D9D3789478043944EA0324C9B20432E30BC7E7002C40F09C81901BF87066
:205F400003B0BDE8F08F002C40F08381901BF8700029F5D0012919D01346527813F8025B6B
:205F6000023945EA0225CCB2EA0B07F14C0B002A00F03C81C5F3C322012AC5F30A0510D088
:205F80000F2A08D08D4B1B68002B70DC4FF0FF3003B0BDE8F08F002DF8D1981B03B0BDE8D8
:205FA000F08F002CF9D0012CF0D09946597819F8022B023C42EA0122E4B2D10B07F1280A69
:205FC000E1B95FFA82F84445C2F3062207D31B2A00F09E801C2A00F082801A2A68D0774B4B
:205FE0001B68002BD2DD764A7649774802F05EFA764802F05BFA4FF0FF30A1E7C2F30A08FA
:206000004445C2F3C322EAD3092AE8D1B8F1000FE5D09A78B8F1010F87F8482034D0D97A3E
:206020009A7A42EA0122022AA7F84A2004D802F10C01884500F0D08008F102016D1A002D2F
:20604000C0F2F480A4EB080420D114F0FF04C84400F0FC80012C99D0434698F8012013F834
:20606000025B023C45EA0225E4B2EA0B7FE7544A5449554802F01AFA554802F017FA4FF081
:20608000FF3003B0BDE8F08F0321D7E714F0FF0409EB080381D0012C3FF478AF994659788A
:2060A00019F8022B023C42EA0122E4B2D10B87E7B8F1060F93D19A780821BA60D87842EA42
:2060C0000022BA60187942EA0042BA60587942EA0062BA609A793A73DB793B74AEE7B8F1F1
:2060E000010F65D0B8F1190F7FF479AF4A469B7807F110017B7490785378023243EA0023FD
:2061000021F8023F5145F6D11B214FF0190895E7B8F1000F3FF463AF997800298CD00129F3
:206120007FF45DAF987904283FF759AF421C02EB820290457FF453AF87F82A10DA7887F8C2
:206140002B2059791A7942EA0122BA859B7987F82E3000283FF470AF4B463A4600EB80001A
:20616000484493F806C05979053341EA0C21118693F803C09978063241EA0C2191851979B2
:20618000984282F82E10ECD156E70C4B1B68002B7FF7FCAE0A4A0B490B4802F087F90D488C
:2061A00002F084F94FF0FF30CAE60846F970C7E69B7803217B7441E700F0FFFF3C06002050
:2061C000184B0100944A010060380100D84B0100BC4B0100884B010003F10C0158460192B1
:2061E0000CF064FF019A02F10E0127E72D4B1B68002B7FF7CBAE2C4A2C492D4802F056F9DF
:2062000029462C4802F052F94FF0FF3098E6254B1B68002B7FF7BAAE234A2449244802F03E
:2062200045F92146244802F041F9AFE61D4B1B68002B7FF7ABAE1C4A1C491D4802F036F956
:206240001E4802F033F94FF0FF3079E6A8EB060076E6144B1B68002B7FF798AE124A134977
:20626000134802F023F92146154802F01FF94FF0FF3065E60B4B1B68002B7FF787AE0A4A2B
:206280000A490B4802F012F921460E4802F00EF94FF0FF3054E6981BC1B2F97050E64FF0F9
:2062A000FF3070473C060020184B0100944A0100603801009C4B0100244B0100EC4B01002A
:2062C000404B0100644B010030B591B0FFF744FA0446FFF755FA6A460146204600F050FB01
:2062E00000284DD00446FFF71BFA002848D09DF810100C20FFF7EAFA08209DF81310FFF733
:20630000E5FA9DF817308BB1BDF81C5000F028F9854205D04FF6FF73BDF81C209A4221D142
:2063200069469DF8170000F0F9F9B0B10D2002A9FFF7DAFA9DF815303BB14FF6FF7107207B
:20634000FFF7C4FA204611B030BD9DF81A100720FFF7BCFA204611B030BD69460E20FFF7FC
:20636000C3FAE3E7084B1B68012B09DD0749084A084802F09BF8BDF81C10074802F096F887
:206380004FF0FF34DEE700BF3C0600201C4C0100184B010060380100244C01002DE9F04187
:2063A00005460C2014460E46A84700232074A374002E37D00122E37462750920A847002736
:2063C0004FF00208A07584F8188007206774A847A07600F0C5F8E0830A20A84701280CBF27
:2063E0003B460323637600F0BBF8A0830B20A84701281CD06EB90323E375637E022B0DD098
:20640000E37DA3F10203B3FA83F35B092375BDE8F081637E84F81780022BF1D101232375AF
:20642000BDE8F0810820A8476675E074C5E7E775E3E700BF30B591B0044600F091F84FF641
:20644000FF7398426AD04022684600210CF00EFF344B1A782AB364BBFFF75AFA6A46C1B202
:206460003148FFF79BFFFFF753FA00283DD04FF6FF73ADF800300D20FFF742FA014602A8BF
:20648000FFF780FAFFF768F90E90FFF779F9034668460F9300F0A2F90546D4B9284611B004
:2064A00030BD01221A70FCF733F8204B1870002CD2D00720FFF712FA0028CDD11B4D29786B
:2064C000D9B189B20720FFF701FA2B7801332B70C2E7FFF7F5F8A0B1FFF74EF9014668465E
:2064E00000F0C8F9284611B030BD0E20FFF708FA01466846FFF746FABDE7012319462B70BC
:20650000E0E70B4B1B68002B08DD0A490A4A0B4801F0CCFF29460A4801F0C8FF4FF0FF3529
:20652000BCE700BF67290020DD580000682900203C060020944A0100184B01006038010025
:20654000404C01000120FFF775BF00BF0020FFF771BF00BF10B10AB1FFF720BF704700BFD8
:20656000014B1888704700BF10080020014B1880704700BF1008002000283ED0037A30B458
:20658000022B10D00378022B15D00379B3B10024C37913F0030318BF012301B10C6002B14C
:2065A000136030BC7047C579447A037965B90CB9012BF2D0DBB100231C46EEE7447A14F0D4
:2065C000030418BF0124E3E7C4B1032D37D1032C2ED0022C24D143BB022D2DD00123032D73
:2065E00024D1A4F10204B4FA84F46409D5E7023C012C8CBF00240124CFE770474BB9022D1D
:2066000008BF0123EAD1A4F10304B4FA84F46409C3E7032D01D0022D02D123461C46BCE78A
:20662000002BC8D1022DDAD1EDE701230024B4E7002BC0D10123D4E701231C46ADE7022D21
:20664000C7D1002BF1D1022C4FF00103DBD11C46A3E700BF30B504460D46084606220021D4
:2066600083B00CF003FE637DD9075CBF01232B70237E012B23D9694601AA04F11000FFF732
:206680007BFF009B0BB10223EB70019B0BB102236B70E37D03F00303022B03D0032B14BFF7
:2066A00000230823AB70637E03F00303022B03D0032B14BF002308232B7103B030BDE37DAC
:2066C0009A0706D0637E9B0703D0E28BA38B9A4202D000232375CEE701232375CBE700BF07
:2066E000002110B582B0019178B1044601AA1030FFF742FF019B43B1074AA38B12889A42D6
:2067000006D04FF6FF72934202D0002002B010BD012002B010BD00BF1008002002280CBF1B
:20672000012307230B441A781846FF2A03F1FF3303D18142F7D1012070470020704700BFB0
:20674000002840D0F8B5437E0E461746044673B1022B13BF10230A2302220822034400F18F
:20676000080113F8015DFF2D23D18B42F9D11EB130461949FFF706F9E37D73B1022B15BFCF
:206780000723012308220222234419781846FF2903F1FF3308D18442F7D147B138460E4985
:2067A000FFF7F0F80120F8BD082A0AD16FB90120F8BD082A05D1002EDED03046FFF7E2F8F0
:2067C000DAE70020F8BD0020704738462146FFF7D9F80120F8BD00BF104B010000B583B0C7
:2067E0006946FFF737FF9DF800309DF801009DF80220023303449DF8030013449DF8042088
:2068000003449DF805001344184403B05DF804FB70B443788278DB0012010578C47802F06B
:20682000100203F008031343027905F0070564012B4304F020049201234302F04002134308
:206840000B7043798579467AC479027A03F001036D0043EA861305F00205A0002B4300F066
:206860000C001201034302F0300213434B7070BC704700BFF0B507460E4683B06946FFF7BE
:20688000E9FE314607F11000FFF7C2FF9DF80030012B02BFBB7E0322B3709DF8013018BF0B
:2068A0000222022B08D1B98B531CB154B98BDBB2090A0232F154D2B29DF802304BB35D1ED5
:2068C00013443D44DBB21446013215F80119D2B29A423155F7D19DF80320022A08D1F98BB0
:2068E0005A1CF154F98BD2B2090A0233B154DBB29DF8040078B1C41D18443C44C0B21A46AA
:20690000013314F80159DBB29842B554F7D103B0F0BD1346DFE7184603B0F0BD70B50278C9
